:020000040800F2
:10000000000002205D02000861020008630200088F
:10001000790200087B02000891020008000000003D
:10002000000000000000000000000000A70200081F
:10003000A902000800000000AB020008F92800082F
:10004000C1020008C1020008C1020008C102000884
:10005000C1020008C1020008C1020008C102000874
:10006000C1020008C1020008C1020008C102000864
:10007000C1020008C1020008C1020008C102000854
:10008000C1020008C1020008C1020008C102000844
:10009000C1020008C1020008C1020008C102000834
:1000A000C1020008C1020008C1020008C102000824
:1000B000C1020008C1020008C1020008C102000814
:1000C000C1020008C1020008C1020008C102000804
:1000D000C1020008C1020008C1020008C1020008F4
:1000E000C1020008C1020008C1020008C1020008E4
:1000F000C1020008C1020008C1020008C1020008D4
:10010000C1020008C1020008C1020008C1020008C3
:10011000C1020008C1020008C1020008C1020008B3
:10012000C1020008C1020008C1020008C1020008A3
:10013000C10200080000000000000000C102000829
:10014000C1020008C1020008C1020008350500080C
:10015000C1020008C1020008C1020008C102000873
:10016000C1020008C1020008C1020008C102000863
:10017000C1020008C10200080000000000000000E9
:10018000C1020008C102000807B502F00FFB294BAD
:10019000294883420BD293E806000C3353F8044CF1
:1001A0009442F6D951F8045B42F8045BF8E7234B1C
:1001B000234900208B4208D253F8082B53F8044CF3
:1001C000A242F7D242F8040BFAE702F0F3FB01A9CE
:1001D000684602F0E3FA1B4C1B4BE41AA4100025FE
:1001E0001E46AC4204DD56F8253098470135F8E745
:1001F000164B174CE41AA41000251E46AC4204DD31
:1002000056F8253098470135F8E79DE8030002F0DD
:1002100015FC104C104BE41A0646A4101D46002C89
:1002200004DD013C55F824309847F8E7304602F0E9
:1002300091FA00BFC4020008DC020008DC020008DA
:10024000EC020008EC020008EC020008EC020008D6
:10025000EC020008EC020008EC0200081448004719
:10026000FEE71EF0040F0CBFEFF30880EFF30980E8
:100270007146104A1047FEE7FEE71EF0040F0CBF60
:10028000EFF30880EFF3098071460B4A1047FEE751
:100290001EF0040F0CBFEFF30880EFF309807146E6
:1002A000064A1047FEE7FEE7FEE7FEE7704700005C
:1002B00089010008770200088F020008A5020008E3
:0202C000FEE757
:1002C400EC2D0008000000205C010020EC2D00084B
:1002D40000000010000000105C0100205C090020F8
:0802E4000000001000000010F2
:1002EC0010B5094C09490022204600F023F90849B1
:1002FC00204600F034F92046064900F001FD204666
:10030C00BDE8104000F032B974010020B8000020A4
:10031C00700000200000002010B50368B3F1A04F5E
:10032C0086B025D14FF4C0530193022302930323CB
:10033C000024049301A90A230E480593039400F0AA
:10034C0039FE0D4B5A6B42F080025A6300945A6C82
:10035C0042F480425A645B6C03F480430093432064
:10036C0022460121009B00F0C3FD432000F0F4FD68
:10037C0006B010BD000002400038024000F561716B
:10038C00D0F8B40300F009B91C2303FB0103D0F827
:10039C00B403D3F8E82100F02DB91C2303FB0103AF
:1003AC00D0F8B4035A6C00F056B9D0F8B40300F08E
:1003BC00D1B910B5C1680446003118BF0121D0F87D
:1003CC00B40300F0B5F9D4F8B403BDE8104000F064
:1003DC0090B9000010B50446D0F8B40300F0ABF9A6
:1003EC002268D2F8003E43F00103C2F8003E236AB3
:1003FC0023B1034A136943F00603136110BD00BF18
:10040C0000ED00E0D0F8B40300F09EB9D0F8B403CE
:10041C0000F0AEB9D0F8B40300F0A8B9D0F8B4032A
:10042C0000F0A8B9D0F8B40300F0A6B908B502786A
:10043C003ABB154B0421C3F8B403C0F820324FF07B
:10044C00A04083E8030002211846D9601A615A6162
:10045C009961DA611A625A62DA621A6300F094FEE8
:10046C0008B102F04AFA8021074801F06EFA4022E6
:10047C000021054801F048FA80220121024801F0D0
:10048C0043FA002008BD00BF9803002008B5D0F83F
:10049C00200200F0E5FE002008BD10B51C46D0F887
:1004AC0020021346224601F02FF9002010BD08B59A
:1004BC00D0F8200201F056F9002008BD08B5D0F89C
:1004CC00200201F0D0F9002008BD08B5D0F82002B8
:1004DC0001F0F5F9002008BD11F0800FD0F82022B2
:1004EC0018BF01F07F034FF01C0015BF00FB032168
:1004FC0000FB012191F83A0091F8DE01704708B534
:10050C00D0F8200201F0EEF8002008BD08B5D0F8B4
:10051C00200201F07BF9002008BD08B5D0F82002BC
:10052C0001F043F9002008BD014800F0AEBE00BF49
:10053C009803002008B580B1D0F8143213B1002311
:10054C00C0F8143209B1C0F81012012380F8FC3144
:10055C000270FFF76BFF002008BD022008BD19B127
:10056C00C0F81412002070470220704708B5FFF73E
:10057C008DFF002008BD08B5D0F814320BB902204D
:10058C0008BD1B6898470028F9D108BD08B5D0F8FC
:10059C0014325B689847002008BD38B5044600F556
:1005AC000275284600F0F3F8012394F80812C4F8F9
:1005BC00F431B4F80E32C4F8F83101F01F03012BFA
:1005CC000CD006D3022B0ED12946204600F026FA79
:1005DC000EE02946204600F0F9F809E029462046AD
:1005EC0000F004FA04E001F080012046FFF766FFFA
:1005FC00002038BD38B50446154609BBD0F8F43197
:10060C00032B26D1D0F80C11D0F8102191420AD925
:10061C008B1A9A4228BF1A46C0F80C3192B229465E
:10062C0000F0ECFB15E0D0F814321B6923B190F804
:10063C00FC21032A00D19847204600F0E7FB08E094
:10064C00D0F814329B6923B190F8FC21032A00D115
:10065C009847002038BD70B5134604460E46002955
:10066C003CD1D0F8F421022A30D1C569026A9542F6
:10067C0007D9AA1AC261194692B200F0A8FB3346F8
:10068C0011E08369B3FBF2F502FB15358DB99A4283
:10069C000FD8D0F8F82193420BD22A4600F097FBE2
:1006AC00C4F8F8512B461A4619462046FFF735FF79
:1006BC000CE0D4F81432DB682BB194F8FC21032A3B
:1006CC0001D120469847204600F0ABFB94F800324D
:1006DC00012B0CD1002384F8003208E0D0F814323E
:1006EC005B6923B190F8FC21032A00D198470020C4
:1006FC0070BD38B500220446114640254023FFF753
:10070C00CCFE2B46C4F81051002280212046FFF766
:10071C00C4FE012384F8FC31D4F8183225622BB1C5
:10072C00D4F8143221795B6820469847002038BDF4
:10073C0001740020704790F8FC3180F8FD310423DF
:10074C0080F8FC310020704790F8FD3180F8FC31C6
:10075C000020704708B590F8FC21032A04D1D0F88A
:10076C001432DB6903B19847002008BD00207047A4
:10077C00002070470020704708B5012280F8FC214A
:10078C00D0F81422017952689047002008BD0B78EC
:10079C0003704B784370CA788B7803EB0223438049
:1007AC004A790B7903EB02238380CA798B7903EBAB
:1007BC000223C380704710B580210446FFF77EFEEC
:1007CC0020460021BDE81040FFF778BE73B54B788A
:1007DC0004460D46092B00F2FF80DFE813F0D10030
:1007EC00E800FD00E400FD007B000A00FD00C100F4
:1007FC00970049880B0A013B062B00F2ED80DFE8DD
:10080C0013F007000B001700EB00EB0042004D004B
:10081C00D0F810321B6816E0027CD0F814320AB9FA
:10082C009B6A00E0DB6A0DF106009847022340E06A
:10083C00C9B2052920D8DFE801F0030B0F13171BF1
:10084C00D0F810325B68207C0DF10601984731E03E
:10085C00D0F810329B68F6E7D0F81032DB68F2E77C
:10086C00D0F810321B69EEE7D0F810325B69EAE77A
:10087C00D0F810329B69E6E7D0F814320DF106027D
:10088C009B6B984716E0037C002B40F0A580D0F8BA
:10089C0014320DF106005B6B98470BE0037C002BC8
:1008AC0040F09A80D0F814320DF106001B6B98477B
:1008BC0007234370BDF80620002A00F09180EB88D6
:1008CC00002B00F08D809A4228BF1A46ADF8062006
:1008DC00014664E08B88002B7ED1CB88002B7BD12A
:1008EC0090F8FC318E78032B06F07F0674D080F8DC
:1008FC00FE613146FFF703FE204600F087FA0EB189
:10090C00022300E0012384F8FC3169E08978364E3B
:10091C000129317060D890F8FC31022B02D0032BE6
:10092C0008D059E0002953D001210323416080F8FD
:10093C00FC310FE031B9022380F8FC314160FFF744
:10094C0025FE45E04168012942D0C9B2FFF71EFEE1
:10095C00317861602046FFF70EFE022838D13BE06B
:10096C00CA88012A38D190F8FC31022B03D0032B12
:10097C0032D1011D13E00146002341F8083F0EE07F
:10098C0090F8FC31023B012B26D80123C360D0F830
:10099C0004320BB10323C360022204F10C01204684
:1009AC0000F008FA1CE04B88012B19D108E090F8F4
:1009BC00FC31023B012B0FD84B88012B10D10023AB
:1009CC00C4F80432D4F8143229469B682046984760
:1009DC00204600F01BFA03E029462046FFF7EBFE09
:1009EC00002002B070BD00BF5C01002038B590F84B
:1009FC00FC31032B04460D460CD10B79012B09D885
:100A0C00D0F814329B689847EB882BB9204600F03D
:100A1C00FDF901E0FFF7CFFE002038BD70B50A7874
:100A2C008E8802F06002202A04460D46F3B204D1EF
:100A3C00D0F814329B68984751E04A78012A10D0BC
:100A4C0026D3032A4BD190F8FC21022A27D0032A63
:100A5C0043D14A8892B95E0610D01946FFF72EFD95
:100A6C000CE090F8FC21022A19D0032A35D14A88CF
:100A7C00AABB590608D01946FFF727FDD4F8143243
:100A8C0029469B6820469847204600F0BFF926E08F
:100A9C0090F8FC21022A02D0032A06D01DE05A0647
:100AAC001DD01946FFF70AFD19E003F07F0516F07B
:100ABC00800F00EB0515194614BF143505F582752A
:100ACC00FFF70AFD10B101232B6000E02860022221
:100ADC002946204600F06EF901E0FFF76CFE00207D
:100AEC0070BD30B5C0B105462B1A15F8014BDBB201
:100AFC00002CF9D15B00023313800B7003234B7075
:100B0C000138022310F8015F35B15A1CD2B2CD5412
:100B1C000233DBB28C54F5E730BD00207047002067
:100B2C00704700207047000029230380004870475D
:100B3C0044000020D0F81832002083F8540070478D
:100B4C0010B5D0F81842236D012B07D1D0F81C3208
:100B5C006178DB682078984700232365002010BD5E
:100B6C000A23038000487047AC00002038B5D0F849
:100B7C001852D0F81C326978DB68044628789847FC
:100B8C0041232A4601212046FFF7C7FC294620466F
:100B9C0001F072FF002038BD38B50C78D0F818324F
:100BAC0014F0600405462BD0202C51D14A78023A1F
:100BBC00092A20D8DFE802F010081F1F1F1F1F177B
:100BCC000C058A785A6443E0012203F1440106E0E3
:100BDC004A88120A9A643BE0012203F14801284634
:100BEC0000F0E8F834E001221A6528468A791946A3
:100BFC0000F0F5F82CE02846FFF7DDFD022428E094
:100C0C004A780A2A1BD00B2A1FD0062A21D14B88DE
:100C1C001B0A222B07D1CA88D0F81C32272A28BFDE
:100C2C002722196809E0212B05D1CA880A49092A0B
:100C3C0028BF092201E021462246284602E0012273
:100C4C0003F14C0100F0B6F803E08A78DA6400E0B6
:100C5C000024204638BD00BF3800002010B581218B
:100C6C000446FFF724FC01212046FFF720FCD4F8B2
:100C7C00183253B1D4F81C329B689847D4F8180238
:100C8C0001F046FF0023C4F81832002010BD70B5E7
:100C9C004023054603228121FFF7FFFB402303225B
:100CAC0001212846FFF7F9FB582001F029FF0646E1
:100CBC00C5F8180270B1D5F81C32002480F85440E5
:100CCC005B6898474123324601212846FFF725FCF3
:100CDC00204670BD012070BD10B5134690F8FC2164
:100CEC00032A0BD1D0F8184294F8542032B90122BF
:100CFC0084F854200A468121FFF708FC002010BD1F
:100D0C0019B1C0F81C120020704702207047000077
:100D1C0012230B8000487047D800002004230B805E
:100D2C0000487047D400002010B5044C04480A4613
:100D3C002146FFF7D6FE204610BD00BF500700200D
:100D4C00402D000810B5044C04480A462146FFF714
:100D5C00C8FE204610BD00BF50070020532D0008D0
:100D6C0010B5044C04480A462146FFF7BAFE20464B
:100D7C0010BD00BF50070020702D000810B5044CAA
:100D8C0004480A462146FFF7ACFE204610BD00BFC2
:100D9C00500700207D2D000810B5044C04480A466D
:100DAC002146FFF79EFE204610BD00BF50070020D5
:100DBC008F2D000810B513460222C0F8F421836170
:100DCC000A46C3610021FFF7A1FB002010BD08B546
:100DDC0013460A460021FFF799FB002008BD10B509
:100DEC0013460322C0F8F421C0F808310A46C0F8B3
:100DFC000C310021FFF791FB002010BD08B5134604
:100E0C000A460021FFF789FB002008BD08B5042322
:100E1C00C0F8F43100231A461946FFF777FB00207F
:100E2C0008BD08B50523C0F8F43100231A4619464D
:100E3C00FFF773FB002008BD704710B5044600F0A7
:100E4C00CFFF4FF47A73B0FBF3F000F091F800226F
:100E5C0021464FF0FF3000F04BF8002010BD000091
:100E6C0008B50B4B1A6842F400721A601A6842F407
:100E7C0080621A601A6842F480721A60032000F0D3
:100E8C0025F80F20FFF7D9FFFFF7D6FF002008BD8C
:100E9C00003C0240024A136801331360704700BFE4
:100EAC0050090020014B1868704700BF5009002002
:100EBC0013B50190FFF7F6FF0446FFF7F3FF019B14
:100ECC00001B9842F9D302B010BD0000074AD3684A
:100EDC0023F4E0631B041B0C43F0BF63000243F4D8
:100EEC00003300F4E0600343D360704700ED00E092
:100EFC00174BDB68C3F3022330B5C3F107041D1D88
:100F0C00042C28BF0424062D4FF0010505FA04F427
:100F1C0004F1FF348CBF033B00230C409C4005FACA
:100F2C0003F3013B1A40002842EA04024FEA021282
:100F3C00AFBF00F1604000F00F00064BD2B2A5BF6E
:100F4C0000F56140D2B21A5480F8002330BD00BFC6
:100F5C0000ED00E014ED00E04209012300F01F0059
:100F6C0003FA00F0014B43F82200704700E100E067
:100F7C000138B0F1807F0AD2064B074A5860F02145
:100F8C0082F823100020072298601A607047012015
:100F9C00704700BF10E000E000ED00E0044B1A6861
:100FAC0004280CBF42F0040222F004021A607047BD
:100FBC0010E000E02DE9F04F6D4F0B68DFF8B8C181
:100FCC00DFF8B88185B000220193BE460124019B55
:100FDC00944034EA030340F0C3804D6825F0100AB6
:100FEC00BAF1020F14D14FEAD20900EB890902F0D1
:100FFC00070BD9F820604FEA8B0B0F2303FA0BF386
:10100C0026EA03060B6903FA0BF33343C9F82030C5
:10101C004FEA420B4FF00309036809FA0BF96FEA28
:10102C00090905F0030603EA090306FA0BF60AF1AF
:10103C00FF3A3343BAF1010F03600FD88368CE68CF
:10104C0009EA030306FA0BF61E4386604368C5F3F0
:10105C00001623EA0403964033434360C36809EA4D
:10106C0003098B6803FA0BF343EA0903C360EB0033
:10107C0076D500230393DCF844603E4B46F480465F
:10108C00CCF84460DCF8446022F0030909F1804993
:10109C0006F4804609F59C39039602F0030A039E78
:1010AC00D9F808B04FEA8A0A0F2606FA0AF69842CF
:1010BC002BEA060620D003F5806398421ED003F578
:1010CC00806398421CD003F5806398421AD003F5D4
:1010DC008063984218D0404518D003F500639842BD
:1010EC0016D003F58063984214D003F580639842C0
:1010FC0014BF092308230EE000230CE001230AE0AF
:10110C00022308E0032306E0042304E0052302E0A5
:10111C00062300E0072303FA0AF33343C9F8083027
:10112C003B68E64315F4803F0CBF33402343CEF8B5
:10113C000030DEF8043015F4003F0CBF334023437D
:10114C007B60BB6815F4801F0CBF33402343CEF883
:10115C000830DEF80C30AD0254BF33402343FB6043
:10116C000132102A7FF432AF05B0BDE8F08F00BF1A
:10117C00003C0140000002400038024000140240D4
:10118C0002B9090481617047F0B506468BB000289E
:10119C0063D00323344680F88133FFF7BDF854F84D
:1011AC00100B00F077FE0FCC6D460FC50FCC0FC5A2
:1011BC0094E8030085E80300371D97E80E003068BB
:1011CC0000F028FE0021306800F06AFE0021334652
:1011DC00324606F110040125084682F83810D187F2
:1011EC0001310F2982F8395082F83B0010645064A9
:1011FC00D06402F11C02F0D10022D6F800E01146B6
:10120C0002F1400083F8DC21DA870EEB800001321A
:10121C000F2A83F8DD1183F8DF11C3F8E411C3F84A
:10122C00E811C3F8F011416003F11C03E8D10FCCB5
:10123C006D460FC50FCC0FC594E8030085E803007D
:10124C00704697E80E0000F041FE012386F88133CA
:10125C00306801F0E5F9002000E001200BB0F0BD92
:10126C0090F88033012B10B504460CD0012380F884
:10127C008033006801F0C8F9206800F005FE0020FA
:10128C0084F8800310BD022010BD2DE9F04FD0F87A
:10129C0000A087B00446504601F0FCF9002840F04D
:1012AC001E82206801F0C8F9002800F0188220681E
:1012BC0001F0C2F9850748BF2268206842BF536914
:1012CC0003F00203536101F0B7F910F400204AD087
:1012DC00206801F0B5F90AF530660746A1460025ED
:1012EC00002F41D0F80738D55FFA85FB59462068A6
:1012FC0001F0B6F910F0010F804621D021690123CD
:10130C009942B3600CD13169D9F8E401C1F31201EF
:10131C00411AC9F8F411D9F8E8110844C9F8E801E0
:10132C0059462046FFF730F82169012908D13DB90B
:10133C00D4F8F02122B904F56172206801F0C9F9E2
:10134C0018F0080F04D02046FFF718F80823B360F4
:10135C0018F0100F1CBF1023B36001357F08203626
:10136C0009F11C09BCE70546206801F065F9410349
:10137C0040F19B80206801F06BF9264603900AF53A
:10138C0010680025039B002B00F08F80039BDA076D
:10139C0040F183805FFA85F94946206801F06AF9CB
:1013AC00C307074620D5DAF834380121A94023EACF
:1013BC000103CAF834380123C8F808302369012B1B
:1013CC0001BF726C336C9B18736449462046FEF760
:1013DC00E4FF2169012907D135B9E36C23B904F580
:1013EC006172206801F075F9380744BF0823C8F80A
:1013FC000830F90644BF1023C8F808307A0644BFF9
:10140C004023C8F80830BB0744BF0223C8F8083093
:10141C003F0642D523680493376DF36CDB1B376CA6
:10142C009F4228BF1F46049B03F5106307F1030B73
:10143C0003EB45134FEA9B0B0593059B9B699BB2F2
:10144C005B450CD84FBB049B012203F50069D3F814
:10145C003438AA4023EA0203C9F834301DE0326D57
:10146C00F36C9342EED9002BECD0376C04989B1A9A
:10147C009F4228BF1F46237C00934A46BBB2716C27
:10148C0001F040F8736C3B447364336D07F1030B4C
:10149C003B444FEA9B0B3365CFE7039B5B0801355D
:1014AC0003931C3608F120086CE7206801F0C4F89F
:1014BC0000280DDADAF8043823F00103CAF80438EE
:1014CC002046FEF79FFF2268536903F000435361E7
:1014DC00206801F0B1F806050BD5DAF80838D80702
:1014EC0002D52046FEF776FF2268536903F40063A9
:1014FC005361206801F0A0F8C10443D50AF50066D9
:10150C007368206823F001037360002100F078FDFC
:10151C0060680AF510630022FF21824205D09960B1
:10152C000132C3F808122033F7E74FF0FF33B361F1
:10153C00F36943F00113F361236B53B1D6F8843094
:10154C0043F00B03C6F88430736C43F00B037364E5
:10155C0007E0736943F00B037361336943F00B03CA
:10156C003361DAF80038217C206823F4FE63CAF872
:10157C00003804F5617201F0ACF82268536903F489
:10158C0080535361206801F057F8820423D52068FA
:10159C0001F084F82068C36823F47053C36000F032
:1015AC0058FD236838B94FF400726261DA68E06064
:1015BC0042F4105206E00322E26040226261DA68D3
:1015CC0042F4A052DA602046FEF7F3FE226853691B
:1015DC0003F400535361206801F02EF8C30638D58C
:1015EC002268936923F010039361DAF82060C6F344
:1015FC004343022B06F00F0714D147F6F073334028
:10160C0013B31C2303FB0747C6F30A163246D7F85D
:10161C00E811504600F08AFFD7F8E8313344C7F898
:10162C00E8310CE0062B0FD1082204F5617150460D
:10163C0000F07CFF1C2303FB0747C6F30A16D7F800
:10164C00F4311E44C7F8F4612268936943F0100327
:10165C009361206800F0F0FF070707D52046FEF7DE
:10166C00A4FE2268536903F008035361206800F05C
:10167C00E3FFC60208D5E9B22046FEF7CBFE22688E
:10168C00536903F480135361206800F0D5FF800286
:10169C0008D5E9B22046FEF7B9FE2268536903F477
:1016AC0000135361206800F0C7FF410007D52046A6
:1016BC00FEF7B4FE2268536903F08043536120683F
:1016CC0000F0BAFF42070AD523685D686B0702D5A4
:1016DC002046FEF7A7FE226853682B43536007B0E1
:1016EC00BDE8F08F90F88033012B10B5044609D07B
:1016FC00012380F88033006800F076FF002084F826
:10170C00800310BD022010BD70B54EB2002E0446F1
:10171C004FF01C0501F07F00B5BF05FB004105FB38
:10172C000141383101F5EE71C0B2002EB8BFC8804E
:10173C00022BCB704FEAD67504BF00230B710870D7
:10174C004D7094F880338A60012B09D0012384F802
:10175C008033206800F098FC002084F8800370BD72
:10176C00022070BD4BB2002B10B54FF01C0204468A
:10177C0001F07F00B5BF02FB004102FB0141383193
:10178C0001F5EE71DB0F08704B7094F88033012B70
:10179C0009D0012384F88033206800F0B6FC0020C7
:1017AC0084F8800310BD022010BD38B5044601F04A
:1017BC007F051C2000FB0540C0F8F0310023C0F869
:1017CC00E821C0F8F43180F8DD3180F8DC51236970
:1017DC00012B08BFC0F8EC2194F88023012A13D008
:1017EC001C21012201FB054184F8802301F5EE71D7
:1017FC00DAB2206815B900F0DBFD01E000F0BCFCAA
:10180C00002084F8800338BD022038BD38B504466A
:10181C0001F07F051C2000FB0540C3640023036519
:10182C000123426480F8393080F838502369012B49
:10183C0008BF826494F88023012A12D01C21012253
:10184C0001FB054184F880233831DAB2206815B9E0
:10185C0000F0AEFD01E000F08FFC002084F8800366
:10186C0038BD022038BD38B54BB2002B01F07F05D6
:10187C004FF01C02B5BF02FB050102FB0101383120
:10188C0001F5EE710122DB0FEDB28A700D704B7019
:10189C0090F88033934204460FD080F88023006880
:1018AC0000F052FE2DB904F56172217C206800F025
:1018BC0010FF002084F8800338BD022038BD38B5F5
:1018CC004BB2002B05464FF01C0201F07F00B5BF58
:1018DC0002FB005102FB0151383101F5EE71DB0FB7
:1018EC0000248C7008704B7095F88033012B09D054
:1018FC00012385F88033286800F058FE85F8804372
:10190C00204638BD022038BD70B50468606A19B92C
:10191C0040EA0243A36216E0A36A002500EB1343DE
:10192C004E1EE8B2864205F1010506D9403004EBA3
:10193C008000406803EB1043F3E73F3104EB810474
:10194C0043EA02436360002070BD036800205962C3
:10195C007047000003682DE9F3410446D80703D40F
:10196C002368990737D487E0A74B9A6802F00C02DA
:10197C00042A07D09A6802F00C02082A0BD15B6883
:10198C005A0208D5A04B1B689B03E9D56368002B52
:10199C00E6D1012034E19D4B22791A7063686BB15A
:1019AC00FFF780FA984D06462B689F03D8D4FFF7B3
:1019BC0079FA801B6428F7D9032021E1FFF772FA2A
:1019CC00914D06462B689803CAD5FFF76BFA801B1E
:1019DC006428F7D9F0E78C4B9A6812F00C0F07D0FB
:1019EC009A6802F00C02082A17D15B68590214D4C9
:1019FC00854B1A68920702D5E268012AC9D11A6888
:101A0C00F82191FAA1F12069B1FA81F100FA01F102
:101A1C0022F0F8020A431A602EE0E2687C4BEAB12D
:101A2C0001221A60FFF73EFA774D06462B6876487E
:101A3C009B0705D4FFF736FA801B0228F6D9BBE7C3
:101A4C000368F82292FAA2F22169B2FA82F201FA40
:101A5C0002F223F0F803134303600DE01A60FFF762
:101A6C0021FA694D06462B689F0705D5FFF71AFA30
:101A7C00801B0228F7D99FE723681E0703D423682D
:101A8C005D0745D51FE06269624B72B101221A6095
:101A9C00FFF708FA5C4D06466B6F9807EFD4FFF71B
:101AAC0001FA801B0228F7D986E71A60FFF7FAF9CA
:101ABC00554D06466B6F9907E1D5FFF7F3F9801B7F
:101ACC000228F7D978E7002301934F4B524D1A6C3B
:101ADC0042F080521A641B6C03F080530193019BFB
:101AEC002B6843F480732B60FFF7DCF906462B68F8
:101AFC00DA0510D5494B227A1A70A368BBB1FFF7EF
:101B0C00D1F9414D064641F288372B6F9B0708D51A
:101B1C00A269DAB959E0FFF7C5F9801B0228E6D9AA
:101B2C004AE7FFF7BFF9801BB842EED944E7FFF74D
:101B3C00B9F9354D064641F288372B6F9807E7D532
:101B4C00FFF7B0F9801BB842F7D935E72E4DAB68DB
:101B5C0003F00C03082B3FF41CAF314E0023022A78
:101B6C00336041D1FFF79EF980462B68264F9901CF
:101B7C002DD447F6C07292FAA2F24FF44033B2FA67
:101B8C0082FE93FAA3F34FF07062B3FA83F592FAE4
:101B9C00A2F2E069236AB2FA82F1626A034302FAA2
:101BAC000EF243EA0200A36A5A08013A02FA05F35C
:101BBC00E26A03438A4013437B6001233360FFF7DF
:101BCC0071F904463B689A0108D5002018E0FFF72C
:101BDC0069F9C8EB00000228C7D9EDE6FFF762F9F6
:101BEC00001B0228EED9E7E6FFF75CF904462B68E8
:101BFC009B01EAD5FFF756F9001B0228F7D9DBE663
:101C0C0002B0BDE8F08100BF00380240023802404B
:101C1C0000004742800E474200700040703802407E
:101C2C00600047424D4B1A6802F00F028A422DE9C0
:101C3C00F04105460E460AD32968880711D5484855
:101C4C00836823F0F002AB681343836009E0CAB2E7
:101C5C001A701B6803F00F039942EDD00120BDE808
:101C6C00F081C90706D43D4B1A6802F00F02964268
:101C7C0053D359E06B683A4A012B03D1126812F422
:101C8C00003F08E0991E0129126802D812F0007F6B
:101C9C0001E012F0020FE1D0314CA26822F00302F5
:101CAC001343A360FFF7FEF86B68012B07460ED1B8
:101CBC0041F28838A36803F00C03042BD3D0FFF750
:101CCC00F1F8C01B4045F5D90320BDE8F081022B8B
:101CDC000CD141F28838A36803F00C03082BC2D056
:101CEC00FFF7E0F8C01B4045F5D9EDE7032B08D111
:101CFC0041F28835A368FFF7D5F8C01BA842F9D983
:101D0C00E2E741F28838A36813F00C0FABD0FFF771
:101D1C00C9F8C01B4045F6D9D6E7F2B21A701B6859
:101D2C0003F00F039E4299D129684A0706D50C4847
:101D3C00836823F4E052EB68134383600B0707D5E9
:101D4C00074A2969936823F4604343EAC10393600B
:101D5C000F20FFF772F80020BDE8F081003C024034
:101D6C00003802401B498B6803F00C03042B2CD069
:101D7C00082B2CD148684B6800F03F0013F4800FFF
:101D8C0047F6C0724B6892FAA2F247F6C071B2FAEB
:101D9C0082F201EA030121FA02F114BF0E4A0F4A42
:101DAC00B2FBF0F00B4A00FB01F352684FF44030E9
:101DBC0090FAA0F002F44032B0FA80F022FA00F06F
:101DCC0001304000B3FBF0F0704703487047034804
:101DDC00704700BF0038024000127A000024F40063
:101DEC0008B5FFF7BFFF084BF0229B6892FAA2F2EE
:101DFC00B2FA82F203F0F003D340044AD35CD84029
:101E0C00034B186008BD00BF00380240A42D000829
:101E1C00F400002084B038B505AD85E80E000A9BAF
:101E2C00012B044617D1836B23F480338363C3687F
:101E3C0023F4840323F04003C360C36823F44013EA
:101E4C00C360119B012B02BFC36843F48013C360B2
:101E5C0000F062FC08E0C36843F04003C36000F08C
:101E6C005BFC4FF48033A363089B012B07D1A36861
:101E7C0043F00C03A360A36843F02003A360BDE808
:101E8C003840002004B07047836843F0010383603E
:101E9C0000207047836823F00103836000207047A3
:101EAC0008B5C368012923F0C043C36004D1C368DB
:101EBC0043F00053C36004E019B9C36843F0804396
:101ECC00C3603220FEF7F4FF002008BD84B02DE97A
:101EDC00F041044607A880E80E00A36B119E0A9FF0
:101EEC0043F400238846A3631EB9A36B43F4001389
:101EFC00A3630023C4F8003ED4F80038C4F80038BB
:101F0C000C9B012B04F5006506D1099929B11946E2
:101F1C00204600F097F803E00321204600F092F8E9
:101F2C001021204600F06CF8204600F07BF80023CE
:101F3C004FF0FF322B6119466B614FF09040AA6154
:101F4C004FF0FF0EEB6104F5106243450CD0D2F854
:101F5C0000C0BCF1000FB4BF1060116001331161FF
:101F6C00C2F808E02032F0E7002204F53063114695
:101F7C004FF090404FF0FF0E42450CD0D3F800C00C
:101F8C00BCF1000FB4BF1860196001321961C3F8BD
:101F9C0008E02033F0E72B69012F23F480732B61C9
:101FAC0008D1154B2B632B6B43F4803343F00303A5
:101FBC002B632B6B0023A3616FF0804363611FB90C
:101FCC00A36943F01003A361A2690C4B1343A361F3
:101FDC000D9B1BB1A36943F00803A361012E01BF44
:101FEC00A36943F0804343F00403A361BDE8F041CF
:101FFC00002004B0704700BF0001800000383C8016
:10200C00890141F02001064A0161013A05D00369BA
:10201C0013F02003F9D1184670470320704700BF16
:10202C00410D03001023064A0361013A05D00369F0
:10203C0013F01003F9D1184670470320704700BF06
:10204C00410D0300D0F800381943C0F800180020E7
:10205C007047D0F8083800F5006213F0060012D073
:10206C00936803F00603022B0CD0936803F006036D
:10207C00062B07D0936803F00603042B14BF002033
:10208C0002207047032070474B7800F50062012B4B
:10209C0070B50E78D4691BD1B3409BB22343D36186
:1020AC000E784FF4106505EB46152B581A042AD4FC
:1020BC002C588A6844F0805343F40043C2F30A025C
:1020CC001A43CB7842EA834343EA86532B501AE0F7
:1020DC004FF4803505FA06F32343D3610C784FF4A3
:1020EC00306303EB441423581B040CD422588B6824
:1020FC00C3F30A0542F0805343F40043CA782B43E0
:10210C0043EA82432350002070BD30B54C780A78E6
:10211C00D0F83C5800F50063012C16D104FA02F2F9
:10212C0092B225EA0202DA630D78DA69AC40A4B205
:10213C0022EA0404DC610A784FF4106303EB4213C7
:10214C001A5822F400421A5014E0012404FA02F244
:10215C0025EA0242DA630D78DA69AC4022EA0444DB
:10216C00DC610A784FF4306303EB42131A5822F403
:10217C0000421A50002030BD2DE9F3414B780C7809
:10218C00012B4FF020054B6940F09B804FF41066FB
:10219C0015FB046404442769ABB927F0FF5727F4F7
:1021AC00C01727610C7815FB04640444276947F4B5
:1021BC00002727610C7815FB046505442C69E40C99
:1021CC00E4042C613FE0FF0CFF0427610C78D1F88C
:1021DC0008C015FB04640444276927F0FF5727F453
:1021EC00C01727610F7815FB0767074403EB0C0436
:1021FC00013CB4FBFCF4DFF8B4C1D7F810E0E40404
:10220C0004EA0C0C4CEA0E043C610C7815FB0464DB
:10221C000444C3F3120E27694EEA07072761CC78F2
:10222C00012C40F0BA800C7815FB04640444276937
:10223C0027F0C04727610C7815FB046505442C6911
:10224C0044F000542C61012A06D10C780D6900EB86
:10225C004414C4F814590BE0CC78012C0BD03BB1CE
:10226C000F78D0F834580124BC402C43C0F83448C3
:10227C00CC78012C11D1D0F8084814F4807F0C785C
:10228C004FF020054FF4106615FB046425580CBF65
:10229C0045F0005545F0805525500D784FF41064ED
:1022AC0004EB4514055945F004450551CC78012C37
:1022BC0077D10C7800929BB22246C96800F022F9C3
:1022CC006FE04FF4306615FB046404442769FF0C7F
:1022DC00FF0427610C7815FB04640444276927F07C
:1022EC00FF5727F4C01727610C788F6883B915FB4B
:1022FC0004640444C7F3120723691F4327610B7856
:10230C0015FB036505442B6943F400232B611DE089
:10231C0015FB046404443B44DFF890C0D4F810E08F
:10232C00013BB3FBF7F34FEAC34808EA0C0C4CEA49
:10233C000E0EC4F810E00C7815FB046505449BB236
:10234C002C695F43C7F3120727432F61012A01BF92
:10235C000B78CA6800EB4313C3F8142BCB78012B12
:10236C0011D1D0F8083813F4807F0B784FF020028D
:10237C004FF4306412FB0343C2580CBF42F00052BE
:10238C0042F08052C2500A784FF4306303EB421390
:10239C00C25842F00442C25003E0012A7FF45FAFFE
:1023AC0053E7002002B0BDE8F08100BF0000F81F29
:1023BC004B78012BF0B50B784D694FF0200463D1AD
:1023CC004FF4106614FB0363034405BB1D6925F031
:1023DC00FF5525F4C0151D610B7814FB03630344F2
:1023EC00012A1D6945F400251D610B7814FB03645B
:1023FC00044423694FEAD3434FEAC343236139D1E1
:10240C000B780A6900EB4313C3F8142932E01F69F7
:10241C00FF0CFF041F610B7814FB03640444236955
:10242C0023F0FF5323F4C01323618B689D420D7876
:10243C0088BF4B6120244FF4106314FB0535054411
:10244C00012A2E6946F400262E610D7814FB053303
:10245C0003444D691C69C5F3120644EA06041C6169
:10246C00CED03DB10D78D0F834280123AB401343C6
:10247C00C0F834380A784FF4106303EB4213C25897
:10248C0042F00442C2503BE04FF4306714FB03733C
:10249C0003441E69F60CF6041E610B7814FB0373DF
:1024AC0003441E6926F0FF5626F4C0161E618E6882
:1024BC0005B14E610B784FF4306514FB03530344A4
:1024CC00C6F312061F6947F400271F610B7814FB33
:1024DC0003540444012A236946EA0306266106D103
:1024EC000B78202212FB03530344CA685A610A7802
:1024FC004FF4306303EB4213C25842F00442C25013
:10250C000020F0BD10B59DF808406CB9033300F500
:10251C00805023F0030300EB02320B44994203D0AA
:10252C0051F8040B1060F9E7002010BD033222F0C3
:10253C0003020A4400F58050914203D0036841F82D
:10254C00043BF9E7084670474B78012B10B54FF068
:10255C0020020C7814D14FF4106312FB0433C258D0
:10256C00002AA2BFC25822F08042C2500A784FF40F
:10257C00106303EB4213C25842F40012C25013E032
:10258C004FF4306312FB0433C258002AA2BFC25866
:10259C0022F08042C2500A784FF4306303EB4213AE
:1025AC00C25842F40012C250002010BD4B78012BCF
:1025BC000B7830B54FF020020CBF4FF410654FF480
:1025CC00306512FB03531C5824F400141C50CB78B8
:1025DC00023B012B06D80B7812FB0352135843F025
:1025EC0080531350002030BDD0F8003823F4FE6324
:1025FC00C0F80038D0F80038090101F4FE610B4333
:10260C00C0F800380020704708B5D0F8043823F023
:10261C000203C0F804380320FEF74AFC002008BD72
:10262C0008B5D0F8043843F00203C0F8043803208E
:10263C00FEF73EFC002008BD4269806910407047DF
:10264C0000F50063D0F81808DB691840000C7047DF
:10265C0000F50063D0F81808DB69184080B27047A9
:10266C0000F5306303EB411100F500608A684069A6
:10267C0010407047D0F81028D0F8343800EB4110D7
:10268C0000F5106023FA01F1C9018068C9B2114349
:10269C0008407047406900F001007047D0F80039DD
:1026AC0023F4FF6323F00703C0F8003900F500633F
:1026BC009A6802F00602042A02BFD0F8002942F000
:1026CC000302C0F800295A6842F480725A60002054
:1026DC00704710B50024C0F8104BD0F8104B44F4E0
:1026EC000024C0F8104BD0F8104B44F01804C0F87C
:1026FC00104BD0F8104B012900F5306344F0C04466
:10270C0008BF4FF08023C0F8104B04BFC0F8142B47
:10271C00C0F8003B002010BD0A4B013B01D1032047
:10272C0070470269002AF8DA0369064A43F001038C
:10273C000361013AF3D0036913F00103F9D1184690
:10274C00704700BF410D030008B500F035F80000DC
:10275C0008B50C4B1A680AB90B4A1A601A680B496F
:10276C00C31C23F0030313448B4206D900F0A8F9D1
:10277C000C2303604FF0FF3008BD024910460B607C
:10278C0008BD00BF600100205C09002000FC012096
:10279C0001230360014B0B60704700BFEC0000206D
:1027AC0008B500F01BF8024B024A9A6008BD00BF46
:1027BC0000ED00E000000008BFF34F8F0549064B09
:1027CC00CA6802F4E0621343CB60BFF34F8F00BFC3
:1027DC00FDE700BF00ED00E00400FA050C4B1A68A1
:1027EC00002142F001021A6099601A6822F084728A
:1027FC0022F480321A60074A5A601A6822F4802246
:10280C001A60D960044B4FF000629A60704700BFA9
:10281C00003802401030002400ED00E0174A18493F
:10282C00936803F00C03042B03D0082B03D0154B37
:10283C0018E0154B16E05068536810F4800F03F045
:10284C003F03506814BF104A0E4AB2FBF3F30B4A15
:10285C005268C2F30142C0F3881001324343520064
:10286C00B3FBF2F30B60054B084A9B68C3F30313ED
:10287C00D25C0B68D3400B60704700BF003802403D
:10288C00F40000200024F40000127A00B42D00089B
:10289C000A4B4FF47A721B68B3FBF2F3013BB3F1B2
:1028AC00807F09D2064A5360064BF02183F823102F
:1028BC000023936007231360704700BFF4000020CF
:1028CC0010E000E000ED00E0024B18601A68002AEE
:1028DC00FCD1704758090020034B1A6812B11A68D2
:1028EC00013A1A60704700BF5809002008B5FEF77E
:1028FC00D1FABDE80840FFF7EFBFFEE730B595B061
:10290C00274B002101911A6C42F080521A641B6C07
:10291C0003F080530193019B224B02911A6842F4FD
:10292C0080421A601B6803F480430293029B0123CC
:10293C00089309934FF480030F93A82302240425D2
:10294C00119308A807230E94109512941393FFF774
:10295C0001F800B1FEE70F2303934FF4A053059049
:10296C00069305214FF4805303A804940793FFF7B3
:10297C0059F9044600B1FEE7FFF732FA4FF47A73C7
:10298C00B0FBF3F0FEF7F4FA2846FEF707FB2246FD
:10299C0021464FF0FF30FEF7ABFA15B030BD00BF4B
:1029AC00003802400070004008B5FEF759FAFFF7F6
:1029BC00A5FFBDE80840FFF731BF000030B589B076
:1029CC00194B1A4D002400941A6B42F080021A63C2
:1029DC001A6B02F080020092009A01941A6B42F07A
:1029EC0001021A631A6B02F001020192019A02941D
:1029FC001A6B42F004021A631B6B03F0040302937C
:102A0C00224628464FF4C051029BFEF7B9FB4FF407
:102A1C00C053039303A901232846049305940694F9
:102A2C00FEF7C8FA09B030BD003802400008024079
:102A3C0010B5FFF72DFFFFF7C1FFFDF751FC002488
:102A4C0001224FF480510B48FEF79AFB002C40F208
:102A5C00EE2008BF4FF47A70FFF736FF00224FF4D8
:102A6C0080510448FEF78CFBFA20FFF72DFF013450
:102A7C00E6E700BF0008024070B5104D86B00C466A
:102A8C00064601A90A22286800F037F8601C00F0FD
:102A9C000BF92318202202305A7001A9204400F0AF
:102AAC00FBF802232370412221463046FEF714F92D
:102ABC002B6801332B6006B070BD00BF680100208D
:102ACC00014B1868704700BF58010020931E222B41
:102ADC0010B50C4602D90020087010BD0A2A06D188
:102AEC00002804DA2D230B704042012100E0002164
:102AFC00214400F0E1F8204610BDFFF7E7BF0000CD
:102B0C00024B0146186800F059B800BF580100206C
:102B1C00024B0146186800F003B800BF58010020B2
:102B2C0038B50546002946D051F8043C0C1F002B43
:102B3C00B8BFE41800F0FCF81F4A1368114613B92B
:102B4C006360146032E0A3420ED92268A01883425D
:102B5C0004BF18685B68636004BF121822600C60C5
:102B6C0024E0A24203D813465A68002AF9D1186807
:102B7C001918A1420BD121680144581882421960DE
:102B8C0014D1106852685A60014419600EE002D9E1
:102B9C000C232B600AE021686018824204BF106885
:102BAC005268626004BF091821605C602846BDE869
:102BBC00384000F0BEB838BD7001002070B5CD1C97
:102BCC0025F0030508350C2D38BF0C25002D0646C5
:102BDC0001DBA94202D90C23336046E000F0A8F8CF
:102BEC00234B1C681A462146A1B10B685B1B0ED403
:102BFC000B2B03D90B60CC18CD501EE08C420DBFB3
:102C0C0063684B686360136018BF0C4615E00C4694
:102C1C004968E9E7174C23681BB9304600F02CF8DB
:102C2C0020602946304600F027F8431C18D0C41CFD
:102C3C0024F00304A0420DD12560304600F079F851
:102C4C0004F10B00231D20F00700C31A0ED05A42CA
:102C5C00E25070BD211A304600F00EF80130EBD175
:102C6C000C233360304600F064F8002070BD00BFC8
:102C7C00700100206C01002038B5064C002305467D
:102C8C0008462360FFF764FD431C02D1236803B19F
:102C9C002B6038BD54090020034611F8012B03F8B2
:102CAC00012B002AF9D17047034613F8012B002A97
:102CBC00FBD1181A01387047F0B51C4C8BB0034689
:102CCC000F466D4604F1200E206861682E4603C63F
:102CDC00083474453546F7D121793171911E20683D
:102CEC00306022294FF0000001D938701CE07D1EA5
:102CFC00B3FBF2F40AAE02FB14333344411C13F859
:102D0C00283C05F8013F23460CB10846F0E77C54FB
:102D1C003A18C11A8B4206DAF95C1478FC5402F8A2
:102D2C0001190133F5E738460BB0F0BDC62D00088C
:102D3C007047704753544D6963726F656C6563746B
:102D4C00726F6E6963730053544D33322043757345
:102D5C00746F6D2048756D616E20696E7465726656
:102D6C0061636500303030303030303030303141DC
:102D7C0000437573746F6D2048494420436F6E6631
:102D8C00696700437573746F6D2048494420496E20
:102D9C007465726661636500000000000102030443
:102DAC0001020304060708090000000000000000EF
:102DBC00010203040607080943003031323334356D
:102DCC00363738396162636465666768696A6B6C4B
:0F2DDC006D6E6F707172737475767778797A0097
:102DEC00100000202F0B0008270B00082B0B0008ED
:102DFC000600FF0901A1018501090175089540151F
:102E0C000026FF00B102850109019102850209012A
:102E1C00750895408102C0FF09211101000122278C
:102E2C0000FFFFFF09022900010100C03209040064
:102E3C0000020300000009211101000122270007F4
:102E4C0005810340000107050103400001FFFFFF5E
:102E5C009B0C0008690C0008A50B00080000000082
:102E6C004D0B0008410B0008790B00080000000016
:102E7C000000000000000000350B0008350B0008B6
:102E8C00350B00086D0B0008000000000A0600025C
:102E9C00000000400100FFFF1D0D0008290D000877
:102EAC00350D0008510D00086D0D0008890D000846
:102EBC00A50D0008040309041201000200000040E3
:102ECC0083041157000201020301FFFF640100207B
:102EDC00000000000024F4000000000000000000CE
:102EEC0000000000000000000000000000000000D6
:102EFC000000000000000000C42D000800000000CD
:102F0C0000000000000000000000000000000000B5
:102F1C0000000000000000000000000000000000A5
:102F2C000000000000000000000000000000000095
:0C2F3C000000000000000000F800002071
:040000050800018965
:00000001FF
