:020000040800F2
:1000000000000220B9020008C1020008C502000871
:10001000390300083D0300088503000800000000C4
:10002000000000000000000000000000CD030008F8
:10003000D103000800000000D5030008E9340008DF
:10004000E9030008E9030008E9030008E9030008E0
:10005000E9030008E9030008E9030008E9030008D0
:10006000E9030008E9030008E9030008E9030008C0
:10007000E9030008E9030008E9030008E9030008B0
:10008000E9030008E9030008E9030008E9030008A0
:10009000E9030008E9030008E9030008E903000890
:1000A000E9030008E9030008E9030008E903000880
:1000B000E9030008E9030008E9030008E903000870
:1000C000E9030008E9030008E9030008E903000860
:1000D000E9030008E9030008E9030008E903000850
:1000E000E9030008E9030008E9030008E903000840
:1000F000E9030008E9030008E9030008E903000830
:10010000E9030008E9030008E9030008E90300081F
:10011000E9030008E9030008E9030008E90300080F
:10012000E9030008E9030008E9030008E9030008FF
:10013000E90300080000000000000000E9030008D7
:10014000E9030008E9030008E9030008B506000810
:10015000E9030008E9030008E9030008E9030008CF
:10016000E9030008E9030008E9030008E9030008BF
:10017000E9030008E9030008000000000000000097
:10018000E9030008E903000800B583B003F076F83E
:10019000384B394A1360394A136039490CE00A6810
:1001A0004B6801F10C04886803E01168196004339E
:1001B00004329842F9D82146324B9942EFD32E4B64
:1001C0001A68314B9A4204D12C4B1A682F4B9A4231
:1001D00000D0FEE7274B2E4A13602E4A13602E4BA9
:1001E0000AE0194651F8082B5B6802E00020106015
:1001F00004329A42FAD30B46284A9342F1D3244B55
:100200001B6813B9234B1B6803B1FEE703F0D0F959
:10021000694601A802F0C2FF214C224B1C1BA4100E
:10022000002504E01E4B53F8253098470135AC42B9
:10023000F8DC1D4C1D4B1C1BA410002504E01A4BC0
:1002400053F8253098470135AC42F8DC0099019805
:1002500003F0F6F90546164C164B1C1BA41004E0DF
:10026000013C134B53F824309847002CF8DC284607
:1002700002F066FFBABADECA00000020600100206A
:10028000EC030008040400087856341232547698BF
:1002900064010020E80D0020040400081404000894
:1002A00014040008140400081404000814040008CE
:1002B000140400081404000808B5FFF765FF00BF28
:1002C00000BEFEE71EF0040F0CBFEFF30880EFF353
:1002D00009807146414A10472DE9F04182B0044639
:1002E0008846134B5E6B9F6B9D6A1B6B13F0020F6E
:1002F0000DD00F4BDB6A002B09DA4BF6AB6103F034
:1003000041F820B14FF00042094BDA620CE0094895
:1003100002F056FFCDF800803B4632462946204683
:1003200002F0B8FF00BEFEE702B0BDE8F08100BFFA
:1003300000ED00E0A443000800BEFEE71EF0040F3D
:100340000CBFEFF30880EFF309807146244A104791
:100350002DE9F04182B004468846084B5E6B9F6BE6
:100360009D6A074802F02CFFCDF800803B463246DC
:100370002946204602F08EFF00BEFEE700ED00E0B9
:10038000B44300081EF0040F0CBFEFF30880EFF336
:1003900009807146134A10472DE9F04182B00446A6
:1003A0008846084B5E6B9F6B9D6A074802F008FF0A
:1003B000CDF800803B4632462946204602F06AFFCF
:1003C00000BEFEE700ED00E0C043000800BEFEE70F
:1003D00000BEFEE700BEFEE770470000D90200083D
:0C03E000510300089903000800BEFEE76E
:1003EC00944400080000002064010020944400089C
:1003FC00000000100000001064010020EC0D002033
:08040C000000001000000010C8
:1004200010B5094C00220949204600F04BF9084953
:10043000204600F05FF90749204600F005FE2046FF
:1004400000F060F910BD00BFFC010020BC000020DE
:1004500074000020040000200368B3F1A04F29D1EC
:1004600010B586B04FF4C0530193022302930024C9
:100470000394032304930A23059301A90E4800F073
:1004800087FF0E4B5A6B42F080025A6300945A6CFD
:1004900042F480425A645B6C03F480430093009BF7
:1004A00022460121432000F0E9FE432000F028FF0E
:1004B00006B010BD704700BF000002400038024087
:1004C00008B500F56171D0F8B40300F037F908BD44
:1004D00008B5C1EBC10293000344D3F8E821D0F87A
:1004E000B40300F059F908BD08B5C1EBC10293008F
:1004F00003445A6CD0F8B40300F082F908BD00BF81
:1005000008B5D0F8B40300F005FA08BD10B50446EC
:10051000C3680BB9002100E00121D4F8B40300F056
:10052000E5F9D4F8B40300F0C1F910BD10B50446E4
:10053000D0F8B40300F0DEF92268D2F8003E43F0B0
:100540000103C2F8003E236A23B1034A136943F052
:100550000603136110BD00BF00ED00E008B5D0F840
:10056000B40300F0D1F908BD08B5D0F8B40300F029
:10057000DFF908BD08B5D0F8B40300F0D7F908BD1D
:1005800008B5D0F8B40300F0D5F908BD08B5D0F827
:10059000B40300F0D1F908BD037863BB10B503467E
:1005A0001648C0F8B433C3F820024FF0A0430360EC
:1005B000042343600222C26000230361436182611D
:1005C000C36103624362C362036301F0E5F808B1EB
:1005D00002F090FF094C8021204601F00DFD4022E1
:1005E0000021204601F0E4FC80220121204601F098
:1005F000DFFC002010BD0020704700BF2004002059
:1006000008B5D0F8200201F049F9002008BD00BF6C
:1006100010B51C4613462246D0F8200201F09AFB82
:10062000002010BD08B5D0F8200201F0C7FB002063
:1006300008BD00BF08B5D0F8200201F059FC002029
:1006400008BD00BF08B5D0F8200201F085FC0020ED
:1006500008BD00BFD0F8202211F0800F08D001F0B3
:100660007F01C1EBC1018B00134493F83A0070473E
:1006700001F07F01C1EBC1018B00134493F8DE014F
:10068000704700BF08B5D0F8200201F051FB0020F0
:1006900008BD00BF08B5D0F8200201F0F5FB00202E
:1006A00008BD00BF08B5D0F8200201F0B3FB002060
:1006B00008BD00BF08B5024801F006F908BD00BF3B
:1006C0002004002098B108B50346D0F8140210B1F8
:1006D0000020C3F8140209B1C3F810121846012310
:1006E00080F8FC310270FFF757FF002008BD0220A0
:1006F000704700BF19B1C0F81412002070470220E3
:10070000704700BF08B5FFF77BFF002008BD00BFA2
:1007100008B5D0F8143223B11B68984718B10220ED
:1007200008BD022008BD002008BD00BF08B5D0F8F4
:1007300014325B689847002008BD00BF38B50446F6
:1007400000F50275284600F01DF90123C4F8F431C4
:10075000B4F80E32C4F8F83194F8081201F01F030F
:10076000012B08D013B1022B0AD00EE029462046F7
:1007700000F086FA0EE02946204600F0A5FA09E0CE
:100780002946204600F0BCFA04E001F08001204632
:10079000FFF750FF002038BD10B5044611BB1346CB
:1007A000D0F8F421032A28D1D0F80C11D0F8102168
:1007B00091420AD9891AC0F80C118A4228BF0A4608
:1007C00092B2194600F0D0FC17E0D0F814321B6941
:1007D00023B190F8FC21032A00D19847204600F06D
:1007E000CBFC0AE00A46D0F814329B692BB190F892
:1007F000FC11032901D111469847002010BD00BF0C
:1008000010B50446002943D11346D0F8F421022A3A
:1008100036D1C169026A91420CD98A1AC26192B278
:10082000194600F089FC00231A4619462046FFF7B6
:1008300039FF25E08169B1FBF2F302FB131393B991
:100840008A4210D8D0F8F83199420CD200221146D1
:1008500000F072FC0021C4F8F8110B460A4620464D
:10086000FFF720FF0CE0D4F81432DB682BB194F8CA
:10087000FC21032A01D120469847204600F088FC3D
:1008800094F80032012B0ED1002384F800320AE0E4
:100890000A46D0F814325B692BB190F8FC11032999
:1008A00001D111469847002010BD00BF38B504465D
:1008B000402300221146FFF7ABFE4025C4F810513B
:1008C0002B46002280212046FFF7A2FE256201234D
:1008D00084F8FC31D4F818322BB1D4F814325B68A8
:1008E000217920469847002038BD00BF01740020C0
:1008F000704700BF90F8FC3180F8FD31042380F888
:10090000FC310020704700BF90F8FD3180F8FC31C9
:100910000020704708B590F8FC31032B04D1D0F8C3
:100920001432DB6903B19847002008BD00207047EE
:10093000002070470020704708B5012280F8FC2194
:10094000D0F81422526801799047002008BD00BFFA
:100950000346002002E00130C0B201331A78002AB9
:10096000F9D170474B88012B0BD110B50446C0F864
:100970000432D0F814329B689847204600F0FCFB04
:1009800010BD70470B7803704B7843708B78CA7832
:1009900003EB022343800B794A7903EB0223838024
:1009A0008B79CA7903EB0223C380704710B50446E4
:1009B0008021FFF73FFE00212046FFF73BFE10BDE0
:1009C00030B583B004460D4649880B0A013B062B1F
:1009D0007CD8DFE803F0040C207B7B5F6C00D0F850
:1009E00010321B680DF10601007C984772E0037C11
:1009F00043B9D0F814329B6A0DF1060098470223E0
:100A0000437067E0D0F81432DB6A0DF106009847B6
:100A1000022343705EE0C9B2052934D8DFE801F053
:100A2000030B131B232BD0F810325B680DF106016A
:100A3000007C98474EE0D0F810329B680DF106011B
:100A4000007C984746E0D0F81032DB680DF10601D3
:100A5000007C98473EE0D0F810321B690DF106018A
:100A6000007C984736E0D0F810325B690DF1060142
:100A7000007C98472EE0D0F810329B690DF10601FA
:100A8000007C984726E0D0F814329B6B0DF10602EB
:100A900098471FE0037C33B9D0F814325B6B0DF13B
:100AA0000600984716E02946FFF780FF20E0037C08
:100AB00043B9D0F814321B6B0DF106009847072399
:100AC000437007E02946FFF771FF11E02946FFF761
:100AD0006DFF0DE0BDF8063053B1EA8842B19A428D
:100AE00028BF1A46ADF806200146204600F016FB46
:100AF00003B030BD38B504468B88E3B9CB88D3B991
:100B00008D7805F07F0590F8FC31032B02D1FFF7BB
:100B10004DFF38BD80F8FE512946FFF7B3FD204652
:100B200000F02AFB1DB1022384F8FC3138BD0123FB
:100B300084F8FC3138BD2046FFF738FF38BD00BFD0
:100B400038B504460D468978264B1970012903D91A
:100B50002946FFF72BFF38BD90F8FC31022B02D05D
:100B6000032B15D039E081B14160032380F8FC31BB
:100B7000FFF7CEFD022804D129462046FFF716FFD5
:100B800038BD204600F0F8FA38BD00F0F5FA38BD5F
:100B900049B9022380F8FC314160FFF7C7FD2046C8
:100BA00000F0EAFA38BD4368994213D0D9B2FFF792
:100BB000BDFD0C4B197861602046FFF7A9FD0228A6
:100BC00004D129462046FFF7F1FE38BD204600F04B
:100BD000D3FA38BD00F0D0FA38BD2946FFF7E6FE5B
:100BE00038BD00BF6801002008B5CB88012B02D0BA
:100BF000FFF7DCFE08BD90F8FC31022B02D0032B7E
:100C000008D00CE00146002341F8083F012200F023
:100C100085FA08BD0122011D00F080FA08BDFFF72A
:100C2000C5FE08BD08B590F8FC31023B012B0CD87D
:100C30000123C360D0F804320BB10323C360022246
:100C400000F10C0100F06AFA08BDFFF7AFFE08BD25
:100C500010B5044690F8FC31023B012B0DD84B88AF
:100C6000012B0CD10023C0F80432D0F814329B6859
:100C70009847204600F080FA10BDFFF797FE10BDA0
:100C800008B54B78092B1BD8DFE803F011171A14AD
:100C90001A08051A0E0BFFF793FE13E0FFF72AFF61
:100CA00010E0FFF74DFF0DE0FFF79EFF0AE0FFF7B2
:100CB000B9FF07E0FFF756FE04E0FFF7C9FF01E0C8
:100CC000FFF774FE002008BD38B504460D4690F8C5
:100CD000FC31032B0FD10B79012B09D8D0F814323A
:100CE0009B689847EB8843B9204600F045FA04E03A
:100CF000FFF75CFE01E0FFF759FE002038BD00BFA2
:100D000038B505460C468A880B7803F06003202B23
:100D100004D1D0F814329B6898477DE0D1B2637853
:100D2000012B26D0002B48D0032B75D190F8FC3135
:100D3000022B02D0032B07D017E000296CD08029AA
:100D40006AD0FFF777FC67E0638823B919B180297F
:100D500001D0FFF76FFCD5F814329B682146284676
:100D60009847284600F008FA56E02146FFF71EFE95
:100D700052E090F8FC31022B02D0032B07D018E090
:100D8000002949D0802947D0FFF754FC44E063880C
:100D9000002B41D111F07F0F07D0FFF753FCD5F89E
:100DA00014329B68214628469847284600F0E4F90B
:100DB00032E02146FFF7FAFD2EE090F8FC31022BDD
:100DC00002D0032B06D024E011F07F0F24D0FFF7D0
:100DD00031FC21E012F0800F06D001F07F040134D5
:100DE00000EB0414043405E001F07F04103400EB40
:100DF000041404342846FFF72DFC10B101232360AE
:100E000001E00023236002222146284600F086F9F3
:100E100002E02146FFF7CAFD002038BDD0B170B511
:100E20000D4616460446FFF793FD0130400080B2A0
:100E30003080287003236B70022307E05A1CD2B263
:100E40000134E9540233DBB20021A954217800298E
:100E5000F4D170BD704700BF00207047002070477C
:100E60000020704729230380004870474800002075
:100E7000D0F81832002083F85400704710B5D0F82D
:100E80001842236D012B07D1D0F81C32DB68617842
:100E90002078984700232365002010BD0A23038093
:100EA00000487047B000002038B50446D0F818520A
:100EB000D0F81C32DB6869782878984741232A46A5
:100EC00001212046FFF7EEFB2946204602F0E4FB15
:100ED000002038BD38B5D0F818520C7814F06004F2
:100EE0002FD0202C56D14B78023B092B25D8DFE898
:100EF00003F0150924242424241C10058B786B642A
:100F0000002448E0012205F1440100F007F9002423
:100F100041E04B881B0AAB6400243CE0012205F150
:100F2000480100F0FBF8002435E001232B658A79A5
:100F3000294600F009F900242DE0FFF737FD0224CF
:100F400029E04B780A2B1CD00B2B20D0062B22D16A
:100F50004B881B0A222B07D1CA88272A28BF2722A1
:100F6000D0F81C32196809E0212B05D1CA88092A5A
:100F700028BF0922094901E000210A4600F0CEF805
:100F800009E0012205F14C0100F0C8F803E08B787C
:100F9000EB6400E00024204638BD00BF3C00002088
:100FA00010B504468121FFF73DFB01212046FFF7E4
:100FB00039FBD4F8183253B1D4F81C329B689847E7
:100FC000D4F8180202F0C0FB0023C4F81832002045
:100FD00010BD00BF70B50446402303228121FFF7F6
:100FE00017FB4023032201212046FFF711FB582065
:100FF00002F0A2FBC4F8180278B10546002680F87A
:101000005460D4F81C325B68984741232A4601217A
:101010002046FFF747FB304670BD012070BD00BF82
:1010200038B5D0F8185290F8FC41032C0AD195F845
:1010300054303BB913460A46012185F854108121EA
:10104000FFF728FB002038BD19B1C0F81C120020A2
:1010500070470220704700BF12230B800048704782
:10106000DC00002004230B8000487047D8000020DB
:1010700008B50A4620B905490548FFF7CFFE03E049
:1010800002490348FFF7CAFE004808BDD807002000
:101090009840000810B5044C0A4621460348FFF763
:1010A000BDFE204610BD00BFD8070020B840000894
:1010B00008B50A4620B905490548FFF7AFFE03E029
:1010C00002490348FFF7AAFE004808BDD8070020E0
:1010D000CC40000808B50A4620B905490548FFF785
:1010E0009DFE03E002490348FFF798FE004808BD53
:1010F000D8070020DC40000808B50A4620B9054999
:101100000548FFF78BFE03E002490348FFF786FE20
:10111000004808BDD8070020F040000810B513466D
:101120000222C0F8F4218361C3610A460021FFF75F
:10113000B1FA002010BD00BF08B513460A460021D1
:10114000FFF7A8FA002008BD10B513460322C0F827
:10115000F421C0F80831C0F80C310A460021FFF72D
:10116000A1FA002010BD00BF08B513460A460021B1
:10117000FFF798FA002008BD08B50423C0F8F43141
:1011800000231A461946FFF785FA002008BD00BF64
:1011900008B50523C0F8F43100231A461946FFF7B5
:1011A00081FA002008BD00BF704700BF10B504469B
:1011B00001F0B0FA064BA3FB0030800900F0B6F84E
:1011C000002221464FF0FF3000F058F8002010BDFB
:1011D000D34D621008B50B4B1A6842F400721A60C6
:1011E0001A6842F480621A601A6842F480721A60C7
:1011F000032000F025F80F20FFF7D8FFFFF7D4FFFA
:10120000002008BD003C0240024A1368013313600D
:10121000704700BFD8090020014B1868704700BF15
:10122000D809002010B582B00190FFF7F5FF044601
:10123000FFF7F2FF001B019B9842F9D302B010BDEB
:1012400010B50446C31E042B03D9A421094801F09C
:10125000ADFF094AD36823F4E0631B041B0C24028E
:1012600004F4E064234343F0BF6343F40033D360EA
:1012700010BD00BF0841000800ED00E070B5044655
:101280000E4615460F2A03D9BC211A4801F08EFFDD
:101290000F2E03D9BD21174801F088FF164BDA68DD
:1012A000C2F30222C2F10701042928BF0421131D41
:1012B000062B01D9033A00E00022012303FA01F1D1
:1012C00001393140914003FA02F2013A2A400A43BF
:1012D000002C06DA04F00F041201D2B2074B1A55A3
:1012E00070BD1201D2B204F1604404F5614484F887
:1012F000002370BD0841000800ED00E014ED00E09F
:1013000010B5041E03DAD021064801F04FFF620930
:1013100004F01F04012303FA04F4034B43F82240B2
:1013200010BD00BF0841000800E100E00138B0F145
:10133000807F0AD2064B5860F021064A82F82310BB
:101340000020986007221A6070470120704700BF94
:1013500010E000E000ED00E010B50446042805D0E0
:1013600020B140F2B311084801F020FF042C05D150
:10137000064A136843F00403136010BD034A136860
:1013800023F00403136010BD0841000810E000E0E2
:101390002DE9F04782B080460F46A14B984223D0FA
:1013A00003F5806398421FD003F5806398421BD0F9
:1013B00003F58063984217D003F58063984213D0F9
:1013C00003F5806398420FD003F5806398420BD0F9
:1013D00003F58063984207D003F58063984203D0F9
:1013E000C521904801F0E2FE3B881BB9C6218D481B
:1013F00001F0DCFE7B68012B22D9112B20D0022BBF
:101400001ED0122B1CD0884A934219D002F58012AC
:10141000934215D002F58012934211D0A2F5F81232
:1014200093420DD002F58012934209D002F580124A
:10143000934205D0032B03D0C7217A4801F0B6FEB2
:10144000BB68022B03D9C821764801F0AFFE002506
:1014500026E10124AC403E682640B44240F01F81A2
:101460007B68022B01D0122B45D13B699BB3092B22
:1014700031D083B37BB373B36BB3012B2BD02AD0A2
:10148000022B28D027D026D0032B24D0042B22D007
:1014900021D020D0052B1ED01DD0092B1BD0062B10
:1014A00019D0092B17D0072B15D014D013D0082B27
:1014B00011D010D00FD0092B0DD00CD00A2B0AD090
:1014C00009D00C2B07D006D005D00F2B03D0D92183
:1014D000544801F06BFEEA08083258F8220005F083
:1014E000070399000F238B4020EA03003B698B40E0
:1014F000034348F82230D8F800304FEA450A4FF04D
:10150000030909FA0AF96FEA090903EA09027B6883
:1015100003F0030303FA0AF31343C8F800307B68AF
:101520005A1E012A03D9112B01D0122B1BD1FB68A3
:10153000032B03D9EC213B4801F038FED8F80830E2
:1015400009EA0302FB6803FA0AF31343C8F80830F8
:10155000D8F8043023EA04047B68C3F30013AB40DB
:101560001C43C8F80440D8F80C3009EA0309BB68EA
:1015700003FA0AF349EA0303C8F80C307B6813F056
:10158000805F00F08C8000230193284B5A6C42F45A
:1015900080425A645B6C03F480430193019BA90869
:1015A0008A1C234B53F8220005F003039B000F22F3
:1015B0009A4020EA02001A4A904521D002F5806242
:1015C00090451FD002F5806290451DD002F58062E3
:1015D00090451BD002F58062904519D002F58062DB
:1015E000904517D002F58062904515D002F58062D3
:1015F000904513D002F5806290451BD108221AE075
:10160000002218E0012216E0022214E0032212E078
:10161000042210E005220EE006220CE007220AE078
:10162000000002403C410008000011100038024058
:1016300000380140092202FA03F3034302311B4A36
:1016400042F821301A4B1A68F34302EA0301786822
:1016500010F4803F01D046EA0201154A1160526839
:1016600003EA0201786810F4003F01D046EA020163
:101670000F4A5160926803EA0201786810F4801FF3
:1016800001D046EA02010A4A9160D26813407968A3
:1016900011F4001F01D046EA0203054AD360013568
:1016A0000F2D7FF6D6AE02B0BDE8F08700380140BE
:1016B000003C014070B5064615460C4621B940F283
:1016C000B111084801F072FD012D04D94FF4D97110
:1016D000044801F06BFD0DB1B46170BD2404B46128
:1016E00070BD00BF3C4100082DE9F04383B00746C0
:1016F0000D46D0F80080CA00521A93000344DE6CF5
:101700001A6DB61A1B6C9E4200D91E4606F10309DB
:101710004FEA99091EE09E1AC5EBC50293003B44AF
:101720001B6C9E4200D91E4606F103094FEA990937
:10173000EB005B1B9C003C44616C3B7C0093B3B2B0
:10174000EAB2404601F0B8FB636C33446364236D36
:1017500033442365414608EB451303F510639B6949
:101760009BB2994509D2EA00521B93003B441A6D83
:10177000DB6C9A4201D2002BCDD146B9012303FA8A
:1017800005F5D1F8343823EA0505C1F834580020AE
:1017900003B0BDE8F08300BF002876D0F0B58BB071
:1017A00004460368B3F1A04F06D03A4A934203D0EF
:1017B0009521394801F0FAFC032384F8813320464F
:1017C000FEF74AFE206801F001F8254655F8107B27
:1017D0006E460FCD0FC60FCD0FC695E8030086E805
:1017E0000300231D0ECB384600F0AEFF0021206819
:1017F00000F0F2FF002210E0D100891A8B00234490
:10180000012183F8391083F83820DA87002183F822
:101810003B1019645964D96401320E2AECD90022B4
:1018200018E0D100891A8B002344002183F8DD11D0
:1018300083F8DC21DA8783F8DF11C3F8E411C3F8F9
:10184000E811C3F8F011236802F1400003EB8003B4
:10185000596001320E2AE4D9254655F8107B6E46B0
:101860000FCD0FC60FCD0FC695E8030086E8030025
:10187000231D0ECB384600F0C5FF012384F88133C9
:10188000206801F0C1FB002001E0012070470BB08F
:10189000F0BD00BF000004406C41000890F88033A8
:1018A000012B0ED010B50446012380F88033006868
:1018B00001F09EFB206800F083FF002084F8800385
:1018C00010BD0220704700BF2DE9F04704460668AE
:1018D000304601F0D5FB002840F02782206801F057
:1018E0009FFB002800F02182206801F099FB10F096
:1018F000020F04D02268536903F002035361206889
:1019000001F08EFB10F4002F5CD0206801F08CFBFE
:101910000746002553E017F0010F4ED05FFA85F916
:101920004946206801F090FB804610F0010F31D04D
:1019300006EB45130122C3F8082B03F53063226937
:10194000012A12D1E900491B8A002244D2F8E4118D
:101950001B69C3F31203C91AC2F8F411D2F8E811D3
:10196000D2F8E4310B44C2F8E83149462046FEF78C
:10197000AFFD2369012B0DD165B9C5EBC5029300FD
:101980002344D3F8F0312BB904F5617201212068AA
:1019900001F096FB18F0080F07D02046FEF790FDE7
:1019A00006EB45130822C3F8082B18F0100F04D0DB
:1019B00006EB45131022C3F8082B01357F08002FD2
:1019C000A9D100E00025206801F02AFB10F4802F47
:1019D00069D0206801F030FB0746002561E017F070
:1019E000010F5CD05FFA85F94946206801F036FBAB
:1019F000804610F0010F2BD0012202FA05F0D6F834
:101A0000343823EA0003C6F8343806EB4513C3F82C
:101A100008292369934207D1EA00521B930023440B
:101A2000596C1A6C0A445A6449462046FEF75CFD1C
:101A30002369012B0CD15DB9C5EBC502930023448A
:101A4000DB6C2BB904F561720121206801F038FBD1
:101A500018F0080F04D006EB45130822C3F8082934
:101A600018F0100F04D006EB45131022C3F8082914
:101A700018F0400F04D006EB45134022C3F80829A4
:101A800018F0020F04D006EB45130222C3F8082910
:101A900018F0800F03D029462046FFF725FE0135B8
:101AA0007F08002F9BD1206801F0BAFA00280DDAD8
:101AB000D6F8043823F00103C6F804382046FEF7B0
:101AC0004DFD2268536903F000435361206801F023
:101AD000A7FA10F4006F0CD0D6F8083813F0010FF5
:101AE00002D02046FEF722FD2268536903F400630A
:101AF0005361206801F094FA10F4805F4FD03746AC
:101B000006F50068D8F8043023F00103C8F8043063
:101B10000021206800F01AFF002207E007EB4213C3
:101B2000FF21C3F80819C3F8081B013263689A4201
:101B3000F4D34FF0FF33C8F81830D8F81C3043F016
:101B40000113C8F81C30236B63B1D8F8843043F01C
:101B50000B03C8F88430D8F8443043F00B03C8F8BE
:101B600044300BE0D8F8143043F00B03C8F81430BD
:101B7000D8F8103043F00B03C8F81030D6F800380E
:101B800023F4FE63C6F8003804F56172217C2068F6
:101B900001F096FA2268536903F480535361206878
:101BA00001F03EFA10F4005F27D0206801F06CFAD3
:101BB0002268D36823F47053D360206800F0F4FEE9
:101BC00050B90023E3604FF4007363612268D36867
:101BD00043F41053D36008E00323E36040236361C0
:101BE0002268D36843F4A053D3602046FEF78EFCEE
:101BF0002268536903F400535361206801F010FA1E
:101C000010F0100F45D02268936923F01003936100
:101C1000376A07F00F08C7F34343022B1FD147F67B
:101C2000F0731F4230D03F094FEAC80AC8EB0A03DD
:101C30004FEA8309A144C7F30A02D9F8E8113046F4
:101C400001F050F9C7F30A07D9F8E8313B44C9F865
:101C5000E831D9F8F4311F44C9F8F47114E0062BC7
:101C600012D1082204F56171304601F03BF9C7F347
:101C70000A174FEAC803C8EB03018A002244D2F8CE
:101C8000F4313B44C2F8F4312268936943F0100305
:101C90009361206801F0C4F910F0080F07D02046C6
:101CA000FEF72EFC2268536903F008035361206895
:101CB00001F0B6F910F4801F08D0E9B22046FEF713
:101CC00059FC2268536903F480135361206801F0C2
:101CD000A7F910F4001F08D0E9B22046FEF744FC33
:101CE0002268536903F400135361206801F098F9E6
:101CF00010F0804F07D02046FEF742FC226853695F
:101D000003F080435361206801F08AF910F0040F5A
:101D10000BD023685D6815F0040F02D02046FEF753
:101D200035FC226853682B435360BDE8F08700BF41
:101D300090F88033012B0BD010B50446012380F8B6
:101D40008033006801F044F9002084F8800310BD5E
:101D50000220704770B54DB2002D07DA01F07F0602
:101D6000C6EBC606B4003834044408E001F07F0630
:101D7000C6EBC606B40004F5EC740444043401F068
:101D80007F012170ED0F6570A260E37005B1E18005
:101D9000022B01D10023237190F88033012B0BD04B
:101DA0000546012380F880332146006800F01CFEC0
:101DB000002085F8800370BD022070BD10B54AB2C6
:101DC000002A07DA01F07F04C4EBC404A30038330F
:101DD000034408E001F07F04C4EBC404A30003F54E
:101DE000EC730344043301F07F011970D20F5A7071
:101DF00090F88023012A0BD00446012280F880232A
:101E00001946006800F03CFE002084F8800310BDF5
:101E1000022010BD70B501F07F06F400A11B8D00FB
:101E200005F5EC750544291DA51BAC000444C4F858
:101E3000E821C4F8F0310023C4F8F43184F8DD312E
:101E400084F8DC610369012B05D1C6EBC605AC0043
:101E50000444C4F8EC2190F88023012A11D00446F0
:101E6000012280F8802326B9DAB2006800F074FFFE
:101E700003E0DAB2006800F043FE002084F880033B
:101E800070BD022070BD00BF70B501F07F06F50087
:101E9000A91B8C0038340119AD1BAC0004446264EA
:101EA000E36400232365012384F8393084F8386023
:101EB0000369012B04D1C6EBC605AC000444A2643F
:101EC00090F88023012A11D00446012280F8802353
:101ED00026B9DAB2006800F03FFF03E0DAB200682A
:101EE00000F00EFE002084F8800370BD022070BD5B
:101EF00038B54AB2002A07DA01F07F04C4EBC40403
:101F0000A3003833034406E0C1EBC104A30003F58A
:101F1000EC730344043301249C7001F07F041C70B3
:101F2000D20F5A7090F88023012A12D00546012260
:101F300080F880231946006800F0E4FF2CB905F50D
:101F40006172297C286801F0BBF8002085F88003C5
:101F500038BD022038BD00BF10B54AB2002A07DAEA
:101F600001F07F04C4EBC404A3003833034406E04B
:101F7000C1EBC104A30003F5EC7303440433002454
:101F80009C7001F07F011970D20F5A7090F8802375
:101F9000012A0BD00446012280F8802319460068EC
:101FA00000F0E2FF002084F8800310BD022010BD85
:101FB00030B40468636A19B943EA0240A06218E0C9
:101FC0000D46A06A03EB1040002308E003F1400136
:101FD00004EB8101496800EB11400133DBB2691E5B
:101FE0008B42F3D340EA024005F13F0104EB81014B
:101FF0004860002030BC7047036859620020704779
:1020000030B583B0044603680F2B03D9F6219C48F2
:1020100001F0CCF8236813F0010F45D06368012B61
:1020200005D9052B03D0FB21954801F0BFF8954B4E
:102030009B6803F00C03042B0AD0924B9B6803F0BF
:102040000C03082B0CD18F4B5B6813F4800F07D067
:102050008C4B1B6813F4003F26D0636823BBCCE194
:102060002279894B1A7063687BB1FFF7D5F8054672
:1020700005E0FFF7D1F8401B642800F2C081814BD6
:102080001B6813F4003FF4D00EE0FFF7C5F80546D7
:1020900005E0FFF7C1F8401B642800F2B281794BDC
:1020A0001B6813F4003FF4D1236813F0020F6AD0C9
:1020B000E368012B04D940F22D11714801F076F844
:1020C00023691F2B04D94FF497716D4801F06EF806
:1020D0006C4B9B6813F00C0F0AD06A4B9B6803F0A3
:1020E0000C03082B1BD1674B5B6813F4800F16D1D0
:1020F000644B1B6813F0020F03D0E368012B40F020
:1021000082816048036823F0F8012369F82292FA7B
:10211000A2F2B2FA82F293400B43036033E0E36829
:10212000FBB10122594B1A60FFF776F8054605E02E
:10213000FFF772F8401B022800F26781514B1B68C1
:1021400013F0020FF4D04F48036823F0F80123691D
:10215000F82292FAA2F2B2FA82F293400B430360A1
:1021600011E00022494B1A60FFF756F8054605E0DA
:10217000FFF752F8401B022800F24981414B1B68CF
:1021800013F0020FF4D1236813F0080F2ED0636907
:10219000012B04D94FF4B771394801F007F863698E
:1021A00093B101223A4B1A60FFF736F8054605E075
:1021B000FFF732F8401B022800F22B81314B5B6F96
:1021C00013F0020FF4D011E00022314B1A60FFF738
:1021D00023F8054605E0FFF71FF8401B022800F230
:1021E0001A81284B5B6F13F0020FF4D1236813F0B0
:1021F000040F60D0A368012B06D9052B04D04FF43F
:10220000CC711F4800F0D2FF002301931D4B1A6CC4
:1022100042F080521A641B6C03F080530193019BBF
:102220001C4A136843F480731360FEF7F5FF0546FC
:1022300005E0FEF7F1FF401B022800F2EE80154B8F
:102240001B6813F4807FF4D0227A134B1A70A368B2
:102250008BB1FEF7E1FF054607E0FEF7DDFF401B0F
:1022600041F28833984200F2DA80064B1B6F13F07C
:10227000020FF2D01FE0FEF7CFFF054616E000BFC9
:10228000AC410008003802400238024000004742DA
:10229000800E47420070004070380240FEF7BCFFDD
:1022A000401B41F28833984200F2BB80634B1B6FA6
:1022B00013F0020FF2D1A369022B04D940F2CD1121
:1022C0005F4800F073FFA369002B00F0AC805B4A0D
:1022D000926802F00C02082A00F0A780022B79D144
:1022E000E3693BB1B3F5800F04D04FF4EB71544870
:1022F00000F05CFF236A3F2B04D940F2D71150480D
:1023000000F054FF636A323BB3F5BF7F04D94FF44A
:10231000EC714B4800F04AFFA36A022B0AD0042B51
:1023200008D0062B06D0082B04D040F2D91144481F
:1023300000F03CFFE36A043B0B2B04D94FF4ED7132
:102340003F4800F033FF00223E4B1A60FEF764FF67
:10235000054604E0FEF760FF401B022867D8374BB4
:102360001B6813F0007FF5D1E169236A1943636AA2
:1023700047F6C07292FAA2F2B2FA82F2934019437F
:10238000A36A5B085A1E4FF4403393FAA3F3B3FADF
:1023900083F302FA03F30B43E26A4FF0706191FAA0
:1023A000A1F1B1FA81F18A401343244A536001221A
:1023B000244B1A60FEF730FF044604E0FEF72CFFC2
:1023C000001B022835D81D4B1B6813F0007FF5D089
:1023D000002031E000221B4B1A60FEF71DFF04466F
:1023E00004E0FEF719FF001B022824D8134B1B68DA
:1023F00013F0007FF5D100201EE001201CE0032037
:102400001AE0032018E0012016E0032014E0032066
:1024100012E0032010E003200EE003200CE0032074
:102420000AE0032008E0002006E0012004E0032089
:1024300002E0032000E0032003B030BD003802407A
:10244000AC4100086000474270B504460D46036881
:10245000013B0E2B04D94FF40E71834800F0A6FE09
:10246000072D04D940F239217F4800F09FFE7F4BB1
:102470001B6803F00F039D4208D9EBB27B4A13702F
:10248000136803F00F039D4240F0DB80236813F0D4
:10249000020F1DD0A368A3B1802B12D0902B10D0B7
:1024A000A02B0ED0B02B0CD0C02B0AD0D02B08D034
:1024B000E02B06D0F02B04D04FF414716A4800F0E2
:1024C00075FE6B498B6823F0F002A36813438B60A1
:1024D000236813F0010F64D06368032B04D940F222
:1024E0005721614800F062FE6268012A05D1604B05
:1024F0001B6813F4003F0FD1A5E0931E012B05D8F4
:102500005B4B1B6813F0007F06D19EE0584B1B68A5
:1025100013F0020F00F09B8055498B6823F00303F2
:1025200013438B60FEF778FE06466368012B0FD1DC
:1025300007E0FEF771FE801B41F28833984200F2FB
:1025400088804B4B9B6803F00C03042BF1D128E0EF
:10255000022B0ED106E0FEF75FFE801B41F28833AE
:10256000984278D8424B9B6803F00C03082BF2D1B9
:1025700017E0032B10D13E4B9B68FEF74DFE801BEE
:1025800041F288339842F6D967E0FEF745FE801B9A
:1025900041F28833984262D8354B9B6813F00C0F98
:1025A000F3D1324B1B6803F00F039D4207D2EAB20E
:1025B0002E4B1A701B6803F00F039D4251D1236804
:1025C00013F0040F19D0E36883B1B3F5805F0DD029
:1025D000B3F5A05F0AD0B3F5C05F07D0B3F5E05FF5
:1025E00004D040F2B521204800F0E0FD20498B687E
:1025F00023F4E052E36813438B60236813F0080F61
:102600001AD0236983B1B3F5805F0DD0B3F5A05F15
:102610000AD0B3F5C05F07D0B3F5E05F04D04FF444
:102620002F71114800F0C2FD114A936823F46043F2
:10263000216943EAC10393600F20FEF7B7FD002034
:1026400070BD012070BD012070BD012070BD012052
:1026500070BD032070BD032070BD032070BD03203A
:1026600070BD012070BD00BFAC410008003C0240BD
:1026700000380240244B9B6803F00C03042B3FD02E
:10268000082B01D02148704710B41F4B586800F048
:102690003F005B6813F4800F10D01D4BB3FBF0F0CC
:1026A000194B5A6847F6C0710A4091FAA1F3B3FA80
:1026B00083F322FA03F303FB00F310E0134BB3FBA5
:1026C000F0F0114B5A6847F6C07402EA040194FA1C
:1026D000A4F2B2FA82F221FA02F202FB00F30A4AF1
:1026E000506800F440324FF4403090FAA0F0B0FA55
:1026F00080F022FA00F001304000B3FBF0F001E07E
:102700000348704710BC7047003802400024F400B2
:1027100000127A0008B5FFF7ADFF084B9B6803F085
:10272000F002F02393FAA3F3B3FA83F322FA03F34C
:10273000034AD35CD840034B186008BD0038024000
:102740009C410008F800002084B010B5044603A89E
:1027500080E80E00089B012B18D1A36B23F4803373
:10276000A363E36823F4840323F04003E360E36896
:1027700023F44013E3600F9B012B03D1E36843F480
:102780008013E360204600F0BDFC09E0E36843F0FD
:102790004003E360204600F0B5FC4FF48033A363B0
:1027A000069B012B07D1A36843F00C03A360A36829
:1027B00043F02003A3600020BDE8104004B0704740
:1027C000836843F00103836000207047836823F02F
:1027D000010383600020704708B5C36823F0C0433D
:1027E000C360012904D1C36843F00053C36004E00F
:1027F00019B9C36843F08043C3603220FEF712FD6D
:10280000002008BD84B0F8B5054607A880E80E0092
:10281000AB6B43F40023AB63119F1FB9AB6B43F465
:102820000013AB632C460023C5F8003E05F5006697
:10283000D5F80038C5F800380C9B012B0BD1099B4B
:1028400023B90021284600F0A7F808E00121284616
:1028500000F0A2F803E00321284600F09DF81021C3
:10286000284600F073F8284600F084F8002333610E
:1028700073614FF0FF32B261F36114E004EB431275
:1028800002F51061D2F80009002804DA4FF09040F8
:10289000C2F8000902E00020C2F8000900220A6123
:1028A000FF228A60013307998B42E7D3002316E0A9
:1028B00004EB431202F53060D2F800EBBEF1000FDA
:1028C00004DA4FF0904EC2F800EB03E04FF0000E38
:1028D000C2F800EB00220261FF22826001338B42CA
:1028E000E6D3336923F4807333610A9B012B08D14B
:1028F000144A3263326B42F4803242F00302326394
:10290000326B0022AA616FF080426A611BB9AB6929
:1029100043F01003AB61AA690B4B1343AB610D9BF2
:102920001BB1AB6943F00803AB61012F05D1AB6963
:1029300043F0804343F00403AB610020BDE8F8405E
:1029400004B070470001800000383C80890141F0EC
:102950002001016100230133054A934205D8026931
:1029600012F0200FF7D1002070470320704700BFFE
:10297000400D03001023036100230133054A9342F5
:1029800005D8026912F0100FF7D10020704703201C
:10299000704700BF400D0300D0F800381943C0F85D
:1029A00000180020704700BFD0F8083800F500601C
:1029B00013F0060F10D0836803F00603022B0DD02E
:1029C000836803F00603062B0AD0836803F006032E
:1029D000042B07D000207047002070470320704769
:1029E000032070470220704730B44B78012B23D16D
:1029F000D0F81C580B78012202FA03F39BB22B4348
:102A0000C0F81C380D7800EB4510D0F8003913F4ED
:102A1000004F31D1D0F800398A68C2F30A04CA786D
:102A200044EA824242EA8552134343F0805343F41E
:102A30000043C0F800391FE0D0F81C280D780123AE
:102A4000AB4042EA0343C0F81C380B7800EB43105C
:102A5000D0F8003B13F4004F0ED1D0F8003B8A6849
:102A6000C2F30A02C97842EA8142134343F0805319
:102A700043F40043C0F8003B002030BC704700BF67
:102A800030B44B78012B1CD1D0F83C580A7803FAAB
:102A900002F292B225EA0202C0F83C28D0F81C28C3
:102AA0000D78AB409BB222EA0303C0F81C380B78C8
:102AB00000EB4310D0F8003923F40043C0F800398C
:102AC0001AE0D0F83C580C78012202FA04F425EA06
:102AD0000444C0F83C48D0F81C480D78AA4024EAC9
:102AE0000242C0F81C280B7800EB4310D0F8003BE2
:102AF00023F40043C0F8003B002030BC704700BF07
:102B000070B582B04B78012B40F0AB804B69EBB9CC
:102B10000B7800EB4313D3F8104924F0FF5424F44E
:102B2000C014C3F810490B7800EB4313D3F81049D5
:102B300044F40024C3F810490B7800EB4313D3F896
:102B40001049E40CE404C3F8104944E00B7800EBAE
:102B50004313D3F81049E40CE404C3F810490B788C
:102B600000EB4313D3F8104924F0FF5424F4C014AD
:102B7000C3F810490C7800EB4414D4F810694B6981
:102B80008D682B44013BB3FBF5F3724D05EAC3435B
:102B90003343C4F810390B7800EB4313D3F81059C2
:102BA0004C69C4F312042C43C3F81049CB78012BB1
:102BB00011D10B7800EB4313D3F8104924F0C04433
:102BC000C3F810490B7800EB4313D3F8104944F0D5
:102BD0000054C3F81049012A06D10B7800EB4313C7
:102BE0000C69C3F814490DE0CB78012B0AD04B696E
:102BF00043B1D0F834680B78012404FA03F333436B
:102C0000C0F83438CB78012B17D1D0F8083813F43A
:102C1000807F09D10B7800EB4313D3F8004944F0CF
:102C20000054C3F8004908E00B7800EB4313D3F8D5
:102C3000004944F08054C3F800490B7800EB43137B
:102C4000D3F8004944F00444C3F80049CB78012B81
:102C50007CD114468B8A0A78C968009400F02CF95C
:102C600074E00B7800EB4313D3F8104BE40CE4044E
:102C7000C3F8104B0B7800EB4313D3F8104B24F040
:102C8000FF5424F4C014C3F8104B4B69A3B90B785C
:102C900000EB4313D3F8105B8C68C4F312042C438D
:102CA000C3F8104B0B7800EB4313D3F8104B44F4EC
:102CB0000024C3F8104B1DE08C682344013BB3FB98
:102CC000F4F30C7800EB4414D4F8106B214D05EAB2
:102CD000C3453543C4F8105B0D7800EB4515D5F8B6
:102CE000106B8C689BB204FB03F4C4F312043443EE
:102CF000C5F8104B012A05D10B7800EB4313CA68C5
:102D0000C3F8142BCB78012B17D1D0F8083813F463
:102D1000807F09D10B7800EB4313D3F8002B42F0EE
:102D20000052C3F8002B08E00B7800EB4313D3F8F4
:102D3000002B42F08052C3F8002B0B7800EB4310BD
:102D4000D0F8003B43F00443C0F8003B002002B041
:102D500070BD00BF0000F81F30B44B78012B6AD162
:102D60004B69EBB90B7800EB4313D3F8104924F00F
:102D7000FF5424F4C014C3F810490B7800EB43133C
:102D8000D3F8104944F40024C3F810490B7800EB41
:102D90004313D3F81049E40CE404C3F810492CE0C1
:102DA0000B7800EB4313D3F81049E40CE404C3F8A8
:102DB00010490B7800EB4313D3F8104924F0FF546B
:102DC00024F4C014C3F810494C698B689C4200D9A4
:102DD0004B610B7800EB4313D3F8104944F4002403
:102DE000C3F810490B7800EB4313D3F810594C6922
:102DF000C4F312042C43C3F81049012A06D10B78FE
:102E000000EB43130A69C3F814290AE04B6943B184
:102E1000D0F834580B78012202FA03F32B43C0F8A0
:102E200034380B7800EB4310D0F8003943F00443FA
:102E3000C0F800393CE00B7800EB4313D3F8104B9B
:102E4000E40CE404C3F8104B0B7800EB4313D3F805
:102E5000104B24F0FF5424F4C014C3F8104B4B69FA
:102E60000BB18B684B610B7800EB4313D3F8104B1D
:102E700044F40024C3F8104B0B7800EB4313D3F851
:102E8000105B8C68C4F312042C43C3F8104B012A66
:102E900005D10B7800EB4313CA68C3F8142B0B78E9
:102EA00000EB4310D0F8003B43F00443C0F8003B74
:102EB000002030BC704700BF70B49DF80C406CB966
:102EC00003339B08002507E000EB023404F580542F
:102ED00051F8046B266001359D42F5D3002070BC8B
:102EE000704700BF10B403329208002305E000F5DC
:102EF0008054246841F8044B01339342F7D30846C9
:102F000010BC70474B78012B16D10B7800EB4313A4
:102F1000D3F80029002A05DBD3F8002922F08042EB
:102F2000C3F800290B7800EB4310D0F8003943F4C4
:102F30000013C0F8003915E00B7800EB4313D3F809
:102F4000002B002A05DBD3F8002B22F08042C3F8C7
:102F5000002B0B7800EB4310D0F8003B43F4001338
:102F6000C0F8003B002070474B78012B17D10B783D
:102F700000EB4313D3F8002922F40012C3F8002910
:102F8000CB78023BDBB2012B20D80B7800EB43104F
:102F9000D0F8003943F08053C0F8003916E00B78C0
:102FA00000EB4313D3F8002B22F40012C3F8002BDC
:102FB000CB78023BDBB2012B08D80B7800EB431037
:102FC000D0F8003B43F08053C0F8003B002070472E
:102FD000D0F8003823F4FE63C0F80038D0F8003889
:102FE000090101F4FE611943C0F800180020704780
:102FF00008B5D0F8043823F00203C0F804380320E1
:10300000FEF710F9002008BD08B5D0F8043843F0E9
:103010000203C0F804380320FEF704F9002008BDBD
:10302000426980691040704700F50063D0F81808C5
:10303000DB691840000C704700F50063D0F81808F1
:10304000DB69184080B2704700EB4111D1F8082BC2
:1030500000F5006040691040704700BF10B4D0F820
:103060001048D0F83438CB40DB01DBB2234300EB0F
:10307000411000F510608068184010BC704700BF18
:10308000406900F001007047D0F8003923F4FF6375
:1030900023F00703C0F8003900F500639A6802F0D6
:1030A0000602042A05D1D0F8002942F00302C0F834
:1030B00000295A6842F480725A600020704700BFAD
:1030C00010B40024C0F8104BD0F8104B44F4002486
:1030D000C0F8104BD0F8104B44F01804C0F8104B57
:1030E000D0F8104B44F0C044C0F8104B012905D172
:1030F000C0F8142B4FF08023C0F8003B002010BC18
:10310000704700BF002301330C4A934211D8026973
:10311000002AF8DA036943F0010303610023013355
:10312000064A934207D8026912F0010FF7D1002036
:103130007047032070470320704700BF400D030015
:10314000FEE700BF08B5034800F052F80120FFF782
:10315000F7FF00BFDC41000808B50D4B1B6813B931
:103160000C4A0B4B1A600A4B1A68C31C23F003036A
:10317000134409498B4206D900F0D8FA0C230360A6
:103180004FF0FF3008BD02490B60104608BD00BF7C
:103190006C010020EC0D002000FC012001230360E5
:1031A000014B0B60704700BFF000002008B50A46D5
:1031B0000146024800F004F8FFF7C4FF304200085F
:1031C0000FB400B583B004AB53F8042B01938021F6
:1031D000064800F0C5FB002803DD0146034800F067
:1031E00049F803B05DF804EB04B0704774010020A7
:1031F00010B5044600F080FB0146204600F03AF886
:103200000121024800F036F810BD00BF204300083D
:103210002DE9F04385B004460F46435613BB042501
:1032200028462146ABBE04461FE03546102E28BF77
:103230001025002306E014F9011B04AA1A4402F821
:10324000101C0133AB42F6D304AA1344002203F846
:10325000102CE9464FF0040840464946ABBE804674
:10326000761B00E00E46002EDFD1384605B0BDE8E3
:10327000F08300BF08B5FFF7CBFF08BD08B500F02D
:1032800091F8024B024A9A6008BD00BF00ED00E0D1
:1032900000000008F8B504460D4617461E462648AD
:1032A000FFF78EFF21682548FFF78AFF61682448F1
:1032B000FFF786FFA1682348FFF782FFE1682248F5
:1032C000FFF77EFF21692148FFF77AFF61692048F7
:1032D000FFF776FFA1691F48FFF772FFE1691E48FB
:1032E000FFF76EFF1D48FFF76BFF29461C48FFF7ED
:1032F00067FF1C4CE16A1C48FFF762FF216B1B480B
:10330000FFF75EFFE16B1A48FFF75AFF15F0800FD9
:1033100003D039461748FFF753FF15F4004F03D089
:1033200031461548FFF74CFF1448FFF749FF06994F
:103330001348FFF745FFF8BD88420008984200088F
:10334000A8420008B8420008C8420008D842000855
:10335000E8420008F8420008084300081843000843
:103360002443000800ED00E0344300084443000813
:103370005443000864430008744300088443000871
:103380008C43000883691A888A4207D10268033A8D
:10339000012A05D80233836101207047002070475D
:1033A000002070470C4B1A6842F001021A6000219D
:1033B00099601A6822F0847222F480321A60074AF7
:1033C0005A601A6822F480221A60D9604FF00062B5
:1033D000034B9A60704700BF003802401030002451
:1033E00000ED00E0224B9B6803F00C03042B07D098
:1033F000082B09D0002B2DD11E4A1F4B1A602CE040
:103400001E4A1D4B1A6028E0194B5A685B6803F08E
:103410003F0312F4800F09D0184AB2FBF3F2144BA9
:103420005B68C3F3881303FB02F208E0114AB2FBA6
:10343000F3F30F4A5168C1F3881101FB03F20C4BFF
:103440005B68C3F3014301335B00B2FBF3F30A4A49
:10345000136002E0074A084B1A60054B9B68C3F3F0
:103460000313074AD15C044A1368CB4013607047CA
:10347000003802400024F400F800002000127A0016
:10348000D04300080A4B1B680A4AA2FB03239B098E
:10349000013BB3F1807F09D2074A5360F021074B0B
:1034A00083F823100023936007231360704700BF45
:1034B000F8000020D34D621010E000E000ED00E0C5
:1034C000034B1860024B1B68002BFBD1704700BFF9
:1034D000E0090020034B1B681BB1024A1368013B43
:1034E00013607047E009002008B5FDF78DFEFFF777
:1034F000F1FF08BDFEE700BF00B595B000210191C6
:10350000284B1A6C42F080521A641B6C03F08053F3
:103510000193019B0291244B1A6842F480421A6085
:103520001B6803F480430293029B012308930993D1
:1035300002230E934FF480020F9204221092A822CD
:10354000119212930723139308A8FEF759FD08B1AF
:10355000FFF7D0FF0F230393022304930023059367
:103560004FF4A05306934FF480530793052103A80B
:10357000FEF76AFF08B1FFF7BDFFFFF7CBF80B4B73
:10358000A3FB00308009FDF7D1FE0420FDF7E4FE27
:10359000002211464FF0FF30FDF770FE15B05DF8C8
:1035A00004FB00BF0038024000700040D34D6210A1
:1035B00008B5FDF70FFEFFF79FFFFFF713FF08BDEC
:1035C00030B589B000240094184B1A6B42F0800289
:1035D0001A631A6B02F080020092009A01941A6B2F
:1035E00042F001021A631A6B02F001020192019A81
:1035F00002941A6B42F004021A631B6B03F004037B
:103600000293029B0A4D22464FF4C0512846FEF712
:1036100051F84FF4C0530393012304930594069487
:1036200003A92846FDF7B4FE09B030BD00380240BA
:10363000000802400022014B1A607047E409002094
:1036400010B5FFF7F7FFFFF71DFFFFF7B9FFFCF716
:10365000E7FE002401224FF480510D48FEF72AF8BE
:1036600014B94FF47A7001E040F2EE20FFF728FF22
:1036700000224FF480510648FEF71CF8FA20FFF7AD
:103680001FFF21460348FFF79BFD0134E2E700BF1F
:1036900000080240004400082DE9F04792B081463E
:1036A0000C464122002101A800F061F863238DF847
:1036B000043061238DF805306D238DF8063020230A
:1036C0008DF807300223237066784FFA86F8A578C4
:1036D0004FFA85FA271D3B46524641461148FFF7EF
:1036E0006FFD86B1012E19D15246394602A800F06D
:1036F00033F80435EDB24FFA85FAA570524601A9A8
:10370000384600F029F8412221464846FDF788FC5A
:103710003B46524641460448FFF752FD12B0BDE811
:10372000F08700BF0C44000834440008014B1868BF
:10373000704700BF5C010020024B0146186800F092
:103740006DB800BF5C010020024B0146186800F014
:1037500017B800BF5C01002010B5431E0A44914217
:1037600004D011F8014B03F8014FF8E710BD0244F3
:103770000346934202D003F8011BFAE770470000AA
:1037800038B50546002946D051F8043C0C1F002BE3
:10379000B8BFE41800F0F2F81F4A1368114613B9D5
:1037A0006360146032E0A3420ED92268A0188342FD
:1037B00004BF18685B68636004BF121822600C6065
:1037C00024E0A24203D813465A68002AF9D11868A7
:1037D0001918A1420BD1216801445818824219607E
:1037E00014D1106852685A60014419600EE002D981
:1037F0000C232B600AE021686018824204BF106825
:103800005268626004BF091821605C602846BDE808
:10381000384000F0B4B838BDF801002070B5CD1CB8
:1038200025F0030508350C2D38BF0C25002D064664
:1038300001DBA94202D90C23336046E000F09EF878
:10384000234B1C681A462146A1B10B685B1B0ED4A2
:103850000B2B03D90B60CC18CD501EE08C420DBF52
:1038600063684B686360136018BF0C4615E00C4634
:103870004968E9E7174C23681BB9304600F02CF87B
:1038800020602946304600F027F8431C18D0C41C9D
:1038900024F00304A0420DD12560304600F06FF8FB
:1038A00004F10B00231D20F00700C31A0ED05A426A
:1038B000E25070BD211A304600F00EF80130EBD115
:1038C0000C233360304600F05AF8002070BD00BF72
:1038D000F8010020F401002038B5064C002305460D
:1038E00008462360FFF738FC431C02D1236803B16C
:1038F0002B6038BDDC090020034613F8012B002A99
:10390000FBD1181A0138704730B5141E05469BB01C
:10391000184604DA8B232B604FF0FF301DE04FF484
:103920000273ADF80C3014BF04F1FF332346029349
:1039300005934FF6FF7300910491ADF80E300246E7
:103940001E9B6946284600F075F8431CBCBF8B23BC
:103950002B6014B1009B00221A701BB030BD000018
:1039600007B5009313460A46014603480068FFF76F
:10397000CBFF03B05DF804FB5C010020704770478B
:103980002DE9F0478E689E4282460C469146984645
:103990003ED88A8912F4906F3AD0256809696F1A67
:1039A0006569022305EB450595FBF3F57B1C434454
:1039B0009D4238BF1D4653050FD52946FFF72EFF00
:1039C000064698B13A462169FFF7C6FEA38923F45B
:1039D000906343F08003A38113E02A4600F02BFBA1
:1039E000064670B921695046FFF7CAFE0C23CAF893
:1039F0000030A38943F04003A3814FF0FF30BDE8BE
:103A0000F087266165613E44ED1B2660A560464651
:103A1000464528BF464632464946206800F0F0FA3F
:103A2000A3689B1BA36023681E4426600020BDE89A
:103A3000F08700002DE9F04F9DB0804603938B89FD
:103A40001C060D4616460DD50B695BB94021FFF7E4
:103A5000E5FE2860286118B90C23C8F80030CDE0D5
:103A600040236B610023099320238DF82930DFF870
:103A70009CB130238DF82A3037463C4614F8013B80
:103A80001BB9B7EB060910D003E0252BF9D0274668
:103A9000F3E74B46324629464046FFF771FF0130B7
:103AA00000F0A780099B4B4409933B78002B00F062
:103AB000A08000234FF0FF320493079305920693F2
:103AC0008DF853301A930126052221784E4800F0D4
:103AD00047FA671C049B38B14B4A801A06FA00F07B
:103AE000184304903C46EFE7D90644BF20228DF8E6
:103AF00053201A0744BF2B228DF8532022782A2AFC
:103B000003D0079A00210A200BE0039A111D1268C6
:103B10000391002A10DA524243F002000792049007
:103B20000BE0274601343B78303B092B03D800FBE0
:103B300002320121F5E701B107923B782E2B1ED10D
:103B40007B782A2B0AD1039B1A1D1B680392002B3A
:103B5000B8BF4FF0FF330237059310E00023059301
:103B6000781C19460A24074601303A78303A092A67
:103B700003D804FB01210123F5E703B105910322DA
:103B80003978224800F0ECF940B14023CBEB00003B
:103B900003FA00F0049B18430490013739781C485D
:103BA0008DF8281006227E1C00F0DAF988B1194B36
:103BB00033B9039B073323F007030833039314E05F
:103BC00003AB00932A46144B04A94046AFF3008090
:103BD00007E003AB00932A460F4B04A9404600F0D0
:103BE00093F8B0F1FF3F824603D0099B53440993F9
:103BF00042E7AB895B0601D4099801E04FF0FF3042
:103C00001DB0BDE8F08F00BF5E44000864440008AA
:103C10006844000800000000813900082DE9F047E1
:103C200091461F460A698B68DDF820809342B8BF31
:103C30001346C9F8003091F8432006460C4612B1ED
:103C40000133C9F800302368990642BFD9F8003023
:103C50000233C9F80030256815F0060510D104F1CB
:103C6000190A07E00123524639463046C047013061
:103C70001AD00135E368D9F800209B1A9D42F1DB88
:103C800094F843302268003318BF012392060FD501
:103C9000E1185A1C302081F84300224494F8451062
:103CA00082F84310023303E04FF0FF30BDE8F087A5
:103CB00004F1430239463046C0470130F4D022684F
:103CC000D9F80050E36802F00602042A08BF5D1B21
:103CD0002269A3680CBF25EAE57500259342C4BF9D
:103CE0009B1AED184FF000091A344D4509D00123F5
:103CF000224639463046C0470130D5D009F1010986
:103D0000F3E70020BDE8F0872DE9F04317460A7E6F
:103D100085B06E2A984606460C460C9B01F1430E70
:103D200000F0AE8011D8632A22D009D8002A00F012
:103D3000BB80582A40F0CA8081F84520834955E06D
:103D4000642A1ED0692A1CD0C0E0732A00F0B0801B
:103D500009D86F2A2ED0702A40F0B8800A6842F045
:103D600020020A603EE0752A24D0782A3AD0ADE0DD
:103D70001A6801F14205111D1960136884F8423078
:103D8000A8E021681A6811F0800F02D0111D196097
:103D900008E011F0400F02F10401196002D0B2F9FD
:103DA000003000E01368002B3CDA2D225B4284F8DF
:103DB000432037E021681A6811F0800F02D0111DEE
:103DC000196007E011F0400F02F10401196001D001
:103DD000138800E01368227E5C496F2A14BF0A2210
:103DE00008221BE078225A4984F845202268186886
:103DF00012F0800F00F104051D6003D1550601D5B6
:103E0000038800E00368D00744BF42F0200222602C
:103E10001BB9226822F0200222601022002084F8C0
:103E2000430001E049490A226568A560002D08DBCE
:103E3000206820F0040020602BB9002D7DD175464C
:103E40000CE0002B79D07546B3FBF2F002FB103387
:103E5000CB5C05F8013D03460028F5D1082A0BD1BB
:103E60002368DA0708D5236962689A42DEBF3023E7
:103E700005F8013C05F1FF35C5EB0E0323612EE08B
:103E800008681A68496910F0800F03D0101D186087
:103E9000136808E010F0400F02F104001860136886
:103EA00001D0198000E0196000232361754616E0F7
:103EB0001A68111D1960156862680021284600F013
:103EC0004FF808B1401B6060636804E004F14205EC
:103ED00084F8422001232361002384F84330CDF885
:103EE00000803B4603AA21463046FFF797FE01308B
:103EF00002D14FF0FF3026E023692A46394630468A
:103F0000C0470130F5D023689B0710D5002504F188
:103F1000190907E001234A4639463046C0470130B7
:103F2000E7D00135E368039A9B1A9D42F2DBE06813
:103F3000039B9842B8BF184605E00B7884F84230DE
:103F400004F142058AE705B0BDE8F0836F4400083C
:103F50008044000800000000000000000000000095
:103F600001F0FF01102A2BDB10F0070F08D010F82A
:103F7000013B013A8B422DD010F0070F42B3F6D12E
:103F8000F0B441EA012141EA014122F007047FF047
:103F900000070023F0E80256083C85EA010586EA9E
:103FA000010685FA47F5A3FA87F586FA47F6A5FADA
:103FB00087F68EB9EED1F0BC01F0FF0102F00702E6
:103FC00032B110F8013B013A83EA010313B1F8D191
:103FD0000020704701387047002D06BF3546033872
:103FE000073815F0010F07D1013015F4807F02BFAB
:103FF000013015F4C03F0130F0BC0138704700BFFC
:10400000884210B501EB020301D8421E0BE0984232
:10401000FBD28118D21AD34204D013F8014D01F813
:10402000014DF8E710BD994204D011F8014B02F898
:10403000014FF8E710BDF8B5074615460E4621B901
:104040001146BDE8F840FFF7E9BB1AB9FFF798FB46
:104050002846F8BD00F015F885420ED929463846A5
:10406000FFF7DCFB044650B131462A46FFF774FBEC
:1040700031463846FFF784FB01E03046F8BD204664
:10408000F8BD51F8040C0028BEBF091851F8043CD3
:10409000C01804387047000053544D333220437524
:1040A00073746F6D2048756D616E20696E746572F2
:1040B000666163650000000053544D6963726F656B
:1040C0006C656374726F6E696373000030303030FA
:1040D00030303030303031410000000043757374AF
:1040E0006F6D2048494420436F6E66696700000089
:1040F000437573746F6D2048494420496E7465722E
:1041000066616365000000002E2E2F73797374655D
:104110006D2F7372632F73746D333266342D686143
:104120006C2F73746D3332663478785F68616C5FBE
:10413000636F727465782E63000000002E2E2F735B
:10414000797374656D2F7372632F73746D33326678
:10415000342D68616C2F73746D3332663478785FF8
:1041600068616C5F6770696F2E6300002E2E2F737D
:10417000797374656D2F7372632F73746D33326648
:10418000342D68616C2F73746D3332663478785FC8
:1041900068616C5F7063642E6300000000000000C3
:1041A0000102030401020304060708092E2E2F73DF
:1041B000797374656D2F7372632F73746D33326608
:1041C000342D68616C2F73746D3332663478785F88
:1041D00068616C5F7263632E6300000061626F72DE
:1041E0007428292C2065786974696E672E2E2E003C
:1041F0002C2066756E6374696F6E3A2000000000B3
:10420000617373657274696F6E2022257322206654
:1042100061696C65643A2066696C652022257322A9
:104220002C206C696E65202564257325730A0000B7
:104230006173736572745F706172616D28292066A5
:1042400061696C65643A2066696C65202225732279
:104250002C206C696E652025640A00006D61696E12
:1042600028617267633D25642C20617267763D5B2F
:10427000000000002C200000222573220000000016
:104280005D293B0A00000000537461636B20667275
:10429000616D653A0A000000205230203D20202543
:1042A0003038580A00000000205231203D202025DF
:1042B0003038580A00000000205232203D202025CE
:1042C0003038580A00000000205233203D202025BD
:1042D0003038580A0000000020523132203D20259D
:1042E0003038580A00000000204C52203D20202584
:1042F0003038580A00000000205043203D2020257F
:104300003038580A0000000020505352203D20252C
:104310003038580A000000004653522F4641523AA6
:104320000A0000002043465352203D20202530380B
:10433000580A00002048465352203D20202530389E
:10434000580A00002044465352203D202025303892
:10435000580A00002041465352203D202025303885
:10436000580A0000204D4D464152203D202530384E
:10437000580A00002042464152203D202025303876
:10438000580A00004D6973630A000000204C522F48
:104390004558435F52455455524E3D2025303858BC
:1043A0000A0000005B486172644661756C745D0AC6
:1043B000000000005B4275734661756C745D0A0015
:1043C0005B55736167654661756C745D0A0000003A
:1043D00000000000000000000102030406070809B5
:1043E000454E44204F46204D454D4F5259212121E5
:1043F00000000000444154413A2025730A000000A7
:104400005365636F6E642025750A0000524543565C
:104410003A2028636F64652025642C2073697A65CF
:10442000202564292025730A444154412025640A2B
:104430000000000053454E443A2028636F64652015
:1044400025642C2073697A65202564292025730A48
:10445000444154412025640A000000004300232DFC
:10446000302B2000686C4C0065666745464700307D
:1044700031323334353637383941424344454600CA
:1044800030313233343536373839616263646566CA
:01449000002B
:104494007856341214000020590E00085D0E0008EE
:1044A400610E00080600FF0901A1018501090175DB
:1044B400089540150026FF00B1028501090191020B
:1044C40085020901750895408102C0FF0921110187
:1044D4000001222700FFFFFF09022900010100C09B
:1044E4003209040000020300000009211101000147
:1044F400222700070581034000010705010340004E
:1045040001FFFFFFD50F0008A10F0008D50E00081A
:10451400000000007D0E0008710E0008A90E0008BE
:10452400000000000000000000000000650E00080C
:10453400650E0008650E00089D0E000800000000CE
:104544000A060002000000400100FFFF59100008A5
:10455400651000089510000871100008B1100008DB
:10456400D5100008F9100008040309041201000220
:104574000000004083041157000201020301FFFF01
:1045840070010020000000000024F400000000007E
:104594000000000000000000000000000000000017
:1045A4000000000000000000000000005C4400085F
:1045B40000000000000000000000000000000000F7
:1045C40000000000000000000000000000000000E7
:1045D40000000000000000000000000000000000D7
:1045E400000000000000000000000000FC000020AB
:0445F400325476982F
:040000050800018965
:00000001FF
